:020000040800F2
:100000003052022079020008413400082122000801
:10001000992600084D0F0008D54C0008000000008C
:10002000000000000000000000000000C101000806
:10003000CD1A00080000000015020008F138000881
:10004000930200089302000893020008930200083C
:10005000930200089302000893020008930200082C
:10006000930200089302000893020008930200081C
:10007000B1160008930200089302000893020008DA
:100080009302000829170008930200089302000851
:100090005110000893020008930200089302000820
:1000A00093020008930200089302000893020008DC
:1000B00093020008A93A000893020008930200087E
:1000C00093020008930200089302000893020008BC
:1000D000930200082D44000893020008D14600084E
:1000E000930200089302000893020008930200089C
:1000F000930200089302000893020008930200088C
:10010000930200089302000893020008930200087B
:10011000930200089302000893020008930200086B
:100120009302000871170008930200089302000868
:10013000930200089302000893020008930200084B
:100140008D11000893020008930200089302000832
:1001500093020008A917000893020008A5490008A7
:10016000930200089302000893020008930200081B
:10017000930200089302000893020008930200080B
:1001800093020008930200089302000885420008C9
:1001900093020008930200089302000893020008EB
:1001A000000000000000000093020008DFF80CD0FF
:1001B00000F044FB00480047758D000830520220D3
:1001C0002A4B19680868B0E8F04F80F30988BFF33C
:1001D0006F8F4FF0000080F311887047000000001F
:1001E00006480068006880F3088862B661B6BFF30D
:1001F0004F8FBFF36F8F00DF00BF00BF08ED00E03F
:10020000DFF80C00016841F470010160704700BF25
:1002100088ED00E0EFF30980BFF36F8F134B1A688E
:100220001EF0100F08BF20ED108A20E9F04F10607B
:1002300008B44FF0600080F31188BFF34F8FBFF315
:100240006F8F0AF0B3FF4FF0000080F3118808BCF5
:1002500019680868B0E8F04F1EF0100F08BFB0EC46
:10026000108A80F30988BFF36F8F7047480400201D
:10027000EFF30580704700000648804706480047B6
:10028000FEE7FEE7FEE7FEE7FEE7FEE7FEE7FEE746
:10029000FEE7FEE731390008AD0100089FED1A1AAC
:1002A000F5EE000A40EE010ABDEEE00AF5EEC00AE6
:1002B00010EE100AF1EE10FA38BF401E00EE100AE0
:1002C0001349F7EE001AB8EEC00A30EEC00ADFEDAF
:1002D0000F0A20EE200AFCEEC00A10EE900AC0F3CE
:1002E000080000EE900A01EB8000F8EE600A90ED45
:1002F000011A70EE600A90ED000A71EEE01A21EE2C
:10030000800A00EE810A704783F9223E0000004413
:10031000C8C60008DFED190AB5EEC00A60EE200A73
:10032000BDEEE01A11EE100AF1EE10FA38BF401ED1
:1003300000EE100A1349F7EE001AB8EEC00A30EECC
:10034000C00ADFED0F0A60EE200ABCEEE00A10EEF4
:10035000100AC0F3080000EE100A01EB8000B8EEAE
:10036000400A90ED011A70EEC00A90ED000A71EE9D
:10037000E01A21EE800A00EE810A704783F9223EDE
:1003800000000044C8C6000840EA01039B0703D0F0
:1003900009E008C9121F08C0042AFAD203E011F8C4
:1003A000013B00F8013B521EF9D27047D2B201E086
:1003B00000F8012B491EFBD270470022F6E710B56A
:1003C00013460A4604461946FFF7F0FF204610BDC3
:1003D000421C10F8011B0029FBD1801A70472DE93F
:1003E000FE4F804681EA0300C00F0C46009021F0CA
:1003F000004123F00045B8EB0200A94105D2404678
:10040000214690461C460B46024623F0004010430E
:1004100047D0270DC7F30A00C3F30A510290401AD0
:10042000019040286BDAC3F3130040F4801B00985E
:10043000924620B10023D2EB030A63EB0B0B019829
:100440005946C0F14002504600F042F906460D46BA
:1004500050465946019A00F04AF910EB08006141F4
:10046000002487EA115284EAE7731A4340D0009AC5
:1004700062B3019A012A4FEA075215DC001B61EBB7
:1004800002014FF0004202EA0752CDE90042001C8F
:1004900041F5801132462B4600F081F903B0BDE8EA
:1004A000F08F40462146F9E7001B61EB0201001C7A
:1004B00041F5801300185B412018A2F5001747EBA7
:1004C000030140EAD570B6196D4111E06D084FEA9D
:1004D000360645EAC0754FEA0752001B61EB020180
:1004E000001C41F5801149084FEA300000195141C4
:1004F00032462B4603B0BDE8F04F00F041B90098FA
:10050000012240000023D0EB020263EBE07300986D
:1005100021464FEAE074B8EB000061EB0401E9E723
:1005200083F000435BE781F0004158E72DE9FE4F7F
:1005300081EA030404F0004421F0004100944FF0EC
:10054000000B23F0004350EA01045ED052EA03049A
:100550005BD0C3F30A54C1F30A552C44A4F2F3341C
:100560000194A0FB0254C1F3130141F48011C3F3C1
:10057000130343F4801301FB024400FB034E840A7F
:10058000970A44EA815447EA8357A4FB0768029517
:100590008D0A05FB07854FEA932C04FB0C542705B5
:1005A000029D4FEA065847EA1637B5EB08056EEB91
:1005B000070C870E920E47EA811742EA8312A7FBC7
:1005C0000201B6EB0B0164EB00042B0D43EA0C3384
:1005D0005E1844EB1C50DA465146E7FB0201C5F3B6
:1005E00013044FEA0B3343EA14534FEA0432019CDD
:1005F00043EA0603A4F10C040294009CCDE900B484
:1006000000F0CDF803B0BDE8F08F00200146F9E717
:1006100000F0004230F000400AD0C10D01F56071D9
:10062000C0F3160042EA0151C20840071143704767
:10063000002001467047000030B5041E71F100042F
:1006400004DB4FF00044404264EB0101141E73F1DF
:10065000000405DB1C464FF00043524263EB0403E9
:100660008B4208BF824230BD30B5041E71F10004D8
:1006700004DB4FF00044404264EB0101141E73F1AF
:10068000000405DB1C464FF00043524263EB0403B9
:10069000994208BF904230BD01F0004330B421F0D0
:1006A000004150EA010206D00A0DA2F56072C1F3C2
:1006B0001301002A02DC30BC00207047440F44EADA
:1006C000C104C100E01830BC00EBC25000F021B8FA
:1006D000202A04DB203A00FA02F100207047914002
:1006E000C2F1200320FA03F3194390407047202AF7
:1006F00006DBCB17203A41FA02F043EAE07306E04A
:1007000041FA02F3D040C2F1200291400843194659
:1007100070470029A8BF7047401C490008BF20F05F
:100720000100704710B4B0FA80FC00FA0CF050EAF7
:10073000010404BF10BC704749B1CCF1200421FA78
:1007400004F411FA0CF118BF012121430843A3EB73
:100750000C01CB1D4FEA00614FEA102042BF002080
:1007600010BC704700EBC35010440029A4BF10BC5C
:100770007047401C490008BF20F0010010BC7047C2
:1007800010B5141E73F1000408DA401C41F1000199
:1007900092185B411A4301D120F0010010BD2DE9F0
:1007A000F04D92469B4611B1B1FA81F202E0B0FAE7
:1007B00080F220329046FFF78BFF04460F4640EA56
:1007C0000A0041EA0B0153465A46084313D011462A
:1007D00053EA010019D0C8F14002504600F040F839
:1007E00005460E46504659464246FFF771FF0843FC
:1007F00005D0012004E020463946BDE8F08D0020F8
:10080000054346EAE0762C4337430A986305E40A39
:10081000A0EB08000022FD0A44EA47540A3002D542
:1008200000200146E9E7010510196941DDE90845A5
:1008300000196941BDE8F04DA2E70000064C074DE4
:1008400006E0E06840F0010394E8070098471034A0
:10085000AC42F6D3FFF7AEFCCCCE0008ECCE0008DD
:10086000202A04DB203A21FA02F00021704721FA05
:1008700002F3D040C2F1200291400843194670476C
:1008800070B58C1810F8015B15F0070301D110F852
:10089000013B2A1106D110F8012B03E010F8016B7F
:1008A00001F8016B5B1EF9D12B0705D40023521E02
:1008B0000DD401F8013BFAE710F8013BCB1A921C6A
:1008C00003E013F8015B01F8015B521EF9D5A14268
:1008D000D8D3002070BD04F021BA04F0B5BAFFF7F8
:1008E000DDBCF0EE400AF5EEC00AF1EE10FA02DDD2
:1008F000B0EE600A7047B1EE600AFBE7002803D053
:100900009FED020A80ED000A704700000000000021
:10091000002803D0B3EE060A80ED000A70470000FD
:1009200070B52DED0C8B84B006460C4615469FED38
:10093000990AF0EE408A9FED970AB0EE409A9FED3B
:10094000950AF0EE40BA9FED930AF0EE409A9FEDC3
:10095000910AB0EE40AA0EB104B11DB904B0BDECCD
:100960000C8B70BD8C48FFF7C9FF8C48FFF7D0FF98
:100970008A48D0ED000A9FED8A1A60EE810AB0EE37
:10098000600A00F025F9F0EE408A28EEA80AF0EEA1
:10099000408A8248D0ED000AB0EE001A60EE810A6B
:1009A0009FED7F1A60EE810AB0EE600A00F010F948
:1009B000B0EE409A29EE090AB0EE409ADFED790ACE
:1009C000B7EE000A00EEA80ADFED770A00EEC90ACA
:1009D000DFED760A20EE200A754880ED000A6E48A9
:1009E00090ED000ADFED730A80EE201AB7EE000AE0
:1009F00031EE000A20EE000A6D48D0ED000A80EECC
:100A0000801A6D4880ED001A94ED000AB5EEC00A18
:100A1000F1EE10FA0DD194ED010AB5EEC00AF1EE37
:100A200010FA06D194ED020AB5EEC00AF1EE10FA02
:100A300046D09FED580AB0EE408A00200190029007
:100A40000390D4ED000A60EEA00A94ED011AD4EDF3
:100A5000011A41EE210A94ED021AD4ED021A41EE78
:100A6000210AB0EE600A00F0A9F8B0EE408A94EDD9
:100A7000000A20EE080A8DED010A94ED010A20EE2D
:100A8000080A8DED020A94ED020A20EE080A8DEDA7
:100A9000030ADDED010AF1EE600AB0EE600AFFF72D
:100AA0001AFFF0EE409A9DED031AF0EE410A9DED1B
:100AB000021AB0EE410AFFF710FFB0EE40AA07E0BD
:100AC0009FED340AF0EE409A9FED320AB0EE40AA54
:100AD00095ED000AB5EEC00AF1EE10FA0DD195EDD4
:100AE000010AB5EEC00AF1EE10FA06D195ED020A40
:100AF000B5EEC00AF1EE10FA3CD0B0EE690A00F093
:100B000067F8B0EE408AB0EE690AFFF7E8FEB0EE93
:100B100040DAB0EE4A0A00F05BF8F0EE40AAB0EE20
:100B20004A0AFFF7DCFEB0EE40BA28EE2A0AD5EDFD
:100B3000010A20EE200AD5ED000A0DEE200A68EE2B
:100B40000B0A95ED021A00EE810AB0EE40CA95ED4F
:100B5000010A20EE0B0AD5ED020A0AEEE00AF0EED9
:100B600040CAF0EE6C0AB0EE4C0AFFF7B6FEF0EEAB
:100B700040BA03E09FED070AF0EE40BAB0EE4A1A21
:100B8000F0EE690AB0EE6B0A304604F09DFC00BF3F
:100B9000E4E6000000000000C4040020C8040020B7
:100BA00035FA8E3CC1BFAD3B9DF8C5362F7C1C414C
:100BB000CC040020506CC24AD004002010B504F0D0
:100BC00075FAB7EE001AC1EE000AB0EE600A10BD69
:100BD000FFF7A0BB2DE9F0412DED028B9AB0054641
:100BE000B0EE408A0E46174698460020179018909F
:100BF00019901490159016904DB146B13FB1B8F1CF
:100C0000000F04D0B5EEC08AF1EE10FA05D1002035
:100C10001AB0BDEC028BBDE8F08196ED000A8DEDB7
:100C2000170A96ED010A8DED180A96ED020A8DED70
:100C3000190A97ED000A8DED140A97ED010A8DED62
:100C4000150A97ED020A8DED160A17AA14A928466F
:100C500004F08CFA402104A8FFF7AFFB00200090BD
:100C6000019002900390002417A904A809F046FF00
:100C700000BF30E004A800EB041090ED000AD5EDB1
:100C8000000A20EE200A04A800EB0410D0ED010AAF
:100C900095ED011A00EE810A04A800EB0410D0EDD6
:100CA000020A95ED021A00EE810A04A800EB041076
:100CB000D0ED030A95ED031A00EE810A20EE080A32
:100CC000F0EE000A80EE201A684600EB840080ED0A
:100CD000001A601CC4B2042CCCDB002410E005EB2D
:100CE000840090ED000A684600EB8400D0ED000A15
:100CF00030EE200A05EB840080ED000A601CC4B2CF
:100D0000042CECDB284609F089F9012080E700007B
:100D100010B50421044801F09BF9BDE81040022100
:100D2000024801F095B9000000080240001402409A
:100D30001021014801F08EB9000002401021014845
:100D400001F086B9000002400121014801F082B99A
:100D5000000402400121014801F07AB90004024078
:100D60002DE9FC4104460D461646002000900190F6
:100D7000FFF7E4FF922000F0C9F80622694612202E
:100D800000F0B2F8FFF7D4FFFFF7D8FF922000F091
:100D9000BDF806225349122000F0A6F8FFF7C8FF5D
:100DA0009DF801009DF80010000200B2084300EE1B
:100DB000100A4C4F0C3FB8EEC00AD7ED010A20EEE6
:100DC000200A85ED000A9DF803009DF8021000023C
:100DD00000B2084300EE100AF8EEC00A97ED010ACF
:100DE00060EE800AC5ED010A9DF805009DF804102B
:100DF000000200B2084300EE900AF8EEE00A20EE8E
:100E0000800A85ED020AFFF7A5FF08226946002047
:100E100000F06AF8FFF798FFFFF79CFF082207F140
:100E20001A01002000F060F8FFF78EFF9DF8000027
:100E30000F2830D19DF803009DF80210000200B287
:100E4000084300EE100AD7ED020AB8EEC00A20EE01
:100E5000200A84ED000A9DF805009DF804100002A8
:100E600000B2084300EE100AF8EEC00A97ED020A3D
:100E700060EE800AC4ED010A9DF807009DF8061097
:100E8000000200B2084300EE900AF8EEE00A20EEFD
:100E9000800A84ED020AFFF751FFA22000F036F825
:100EA00002226946222000F01FF8FFF741FF9DF85B
:100EB00000009DF80110C00040EA5110B0F5806FAD
:100EC00002DBA0F5006000B200EE100AB4EE001ADA
:100ED000F8EEC00AB3EE070A00EE810A86ED000ABA
:100EE000BDE8FC815400002070B50D46144640F06A
:100EF000800000F00BF806E0552000F007F805F838
:100F0000010B641EE4B2002CF6D170BD10B50021B7
:100F10000C4B0D4A02E0994206D2491C1489A407E1
:100F2000F9D59081002004E0002010BD984206D23F
:100F3000401C1189C907F9D09089C0B210BD0020AA
:100F400010BD000080A2190000300140FEE7000043
:100F50002DE9F04F8BB00746DDF850B0884691463A
:100F60009A460121082002F0E3FA01214C062046AE
:100F700002F0ECFA0121204602F0F6FA00212046A8
:100F800002F0F2FA0326099602208DF828000024C8
:100F90008DF82A4001258DF82B508DF829602A4EB6
:100FA00009A9304601F006F809220021304601F077
:100FB0003FF809220121304601F03AF88DF81F5020
:100FC0008DF820408DF81E408DF823408DF821408B
:100FD0008DF822408DF81A70ADF818B08DF81C907D
:100FE0008DF81DA08DF81B80184E06A9304600F024
:100FF00007FAADF810408DF813408DF81450ADF895
:101000000840ADF80A40ADF80C40ADF80E408DF840
:1010100012408DF8155002A800F018F901220221A3
:10102000304600F0E3F914208DF8040004208DF818
:1010300005008DF806408DF8075001A802F002FA6D
:101040000BB0BDE8F08F0000000C024000640040CF
:1010500010B50B4C0221204600F062F900280ED09A
:101060000221204600F0AEF8064A0021204600F09A
:1010700049FA2046BDE81040024902F029BB10BDE4
:1010800000640040E80400202DE9F0478AB00646DD
:10109000DDF848A00F46904699460121022002F053
:1010A00047FA01218C06204602F050FA0121204621
:1010B00002F05AFA0021204602F056FA4FF440504E
:1010C000089002208DF8240000248DF826408DF829
:1010D000274003208DF825002A4D08A9284600F056
:1010E00069FF09220C21284600F0A2FF09220D21E8
:1010F000284600F09DFF01258DF81B508DF81C40FF
:101100008DF81A408DF81F408DF81D408DF81E4057
:101110008DF81660ADF814A08DF818808DF8199030
:101120008DF81770184E05A9304600F069F9ADF832
:101130000C408DF80F408DF81050ADF80440ADF81C
:101140000640ADF80840ADF80A400E208DF80E00BC
:101150008DF8115001A800F079F8012202213046E3
:1011600000F044F940208DF8000004208DF80100C3
:101170008DF802408DF80350684602F063F90AB01A
:10118000BDE8F087000402400068004010B50B4C39
:101190000221204600F0C4F800280ED0022120468B
:1011A00000F010F8064A0021204600F0ABF9204676
:1011B000BDE81040024902F08BBA10BD0068004043
:1011C000FC04002030B5082310240422B1F5007F70
:1011D00033D011DC20292AD007DC012922D00429B0
:1011E00023D0082900D1C46030BD402921D0B1F5F9
:1011F000807FF9D1426030BD0025B1F5004F20D08D
:1012000008DCB1F5806F1AD0B1F5006FF3D18561BC
:10121000426030BDB1F5803F0DD0B1F5003FF8D14F
:10122000446030BD0849816030BDC36030BD03619A
:1012300030BD046130BD436030BD426030BD4260AE
:1012400030BD8561426030BD01010100F0B5827A98
:1012500001219140304C226842F0010222602E4D63
:101260001C352A688A432A602B4A067B0C322B4B9A
:10127000002E14D116688E4316604688C78846EA49
:101280000746877A03EBC707C7F840660688878852
:1012900046EA0746877A03EBC707C7F84466067B2A
:1012A000012E14D116680E4316604288068842EA61
:1012B0000642867A03EBC606C6F84026C2888688B0
:1012C00042EA0642867A03EBC603C3F84426124A72
:1012D000C37A121D3BB113680B4313600E4A038996
:1012E000143223B106E013688B431360F6E71368EA
:1012F0008B4313600389012B02D113680B431360E6
:10130000407B012802D1286808432860206820F02B
:1013100001002060F0BD0000006600400060004059
:101320000246002053690B425DD0B1F5807F4AD060
:1013300016DC082937D009DC01292CD002292ED04F
:10134000042950D1D068082100F0ACB910292ED062
:10135000202930D0402946D11069102100F0A2B9CF
:10136000B1F5004F3BD00CDCB1F5007F2FD0B1F5CB
:10137000806F30D0B1F5006F35D19069702100F0E9
:1013800091B9B1F5803F1AD0B1F5003F2BD150682B
:10139000102100F087B99068134900F083B9D06834
:1013A000032100F07FB9D068102100F07BB91069EB
:1013B000032100F077B91069082100F073B9506873
:1013C000082100F06FB99069012100F06BB99069B4
:1013D000022100F067B99069042100F063B95068F8
:1013E000042100F05FB9704701010100002A03D019
:1013F00042690A434261704742698A4342617047C9
:1014000010B50022036823F002030360036843F071
:10141000010303604FF6FF7300E0521C4468E407C9
:1014200001D19A42F9D14268D2073ED08A79012A85
:101430003DD0026822F080020260CA79012A3BD0C6
:10144000026822F0400202600A7A012A39D002685A
:1014500022F0200202604A7A012A37D0026822F084
:10146000100202608A7A012A35D0026822F008024E
:101470000260CA7A012A33D0026822F004020260B4
:101480008A78CC78920742EA04620C7942EA0442F4
:101490004C79098842EA0452491E0A43C261016834
:1014A00021F001010160002120E0002010BD026850
:1014B00042F080020260C0E7026842F0400202602F
:1014C000C2E7026842F020020260C4E7026842F00C
:1014D00010020260C6E7026842F008020260C8E734
:1014E000026842F004020260CAE7491C4268D2075F
:1014F00001D09942F9D14068C00701D0002010BD49
:10150000012010BD10B500EB0113D3F8B04104F079
:1015100004041472002C2CD0D3F8B041E4085460B9
:1015200003F5D8731C6804F0020454725C6804F07C
:101530000F0494725C68240AD4749C68D4729C680A
:10154000240A14739C68240C54739C68240E9473AE
:10155000DC68D473DC68240A1474DC68240C5474CA
:10156000DB681B0E937449B1016941F020010161F0
:1015700010BDD3F8B041640D1460D1E7C16841F0EB
:101580002001C16010BD30B50246002093685B01A8
:101590000AD49068000101D5012005E09068C000E0
:1015A00001D5022000E0042004283BD002EB001209
:1015B000D2F8803103F00103C2F880310B7A93B383
:1015C000D2F880414D681C434B7A43EAC5031C4363
:1015D000C2F880418B7A03F00F038B7202F5C07260
:1015E000536823F00F03536053688C7A234353608E
:1015F000CB7A8C7B0D7B43EA04634C7B240444EA66
:10160000052423439360CB7B8C7C43EA04634C7CAE
:10161000097C240444EA01210B43D360116841F0A2
:101620000101116030BDFFE7D2F880314C7A2343CD
:101630000C8843EA4453C2F88031CBE7497800294B
:1016400010D001291BD002290BD190ED030ADFED48
:10165000120AB8EEC00A80EE201ABDEEC10A80ED73
:10166000040A704790ED030ADFED0C0AB8EEC00AD9
:1016700080EE201ABDEEC10A80ED040A704790ED9D
:10168000030ADFED070AB8EEC00A80EE201ABDEEAD
:10169000C10A80ED040A7047CDCC4C44610BB641C1
:1016A000832DD843024600200A4200D00120704713
:1016B00070B5174D174C2946204600F07DF968B1EA
:1016C0001549204600F092F940B127220221134823
:1016D00005F0D5FD2946204600F092F8104D204631
:1016E000294600F069F9002810D00E49204600F084
:1016F0007DF900280AD027220121084805F0BFFD06
:1017000029462046BDE8704000F07AB870BD000060
:101710000008001028600240008800109C2700206C
:10172000000400100044001070B50D4D0D4C29460A
:10173000204600F041F9002810D00B49204600F067
:1017400055F900280AD027220221084805F097FD04
:1017500029462046BDE8704000F052B870BD000038
:1017600000002020A060024000802020B42700203C
:1017700070B50A4C0A4D2146284600F01DF9002894
:101780000BD02146284600F03BF8BDE8704001220E
:1017900040F22441034803F020BA70BD0008001055
:1017A000286402400014014070B5114D114C2946C7
:1017B000204600F001F9002819D00F49204600F01A
:1017C00015F9002813D00021204600F02FF82946F3
:1017D000204600F015F81121204600F075F9BDE80B
:1017E0007040012240F22661044803F0F6B970BD52
:1017F00000002020A064024000802020001401404E
:10180000074A904201D2074801E005481038064ACD
:101810008B0001EA020101D5C16070478160704709
:1018200010640240006002407D0F7D0F002904D04B
:10183000016841F0010101607047016821F0010178
:10184000016070472DE9F043016821F0010101605A
:101850000021016041608160C1600161212141611D
:101860003E493E4A10394FF03D08904203D1C1F83D
:101870000880BDE8F083394A4FF47465183290420D
:1018800001D18D60F5E7354A4FF47416303290423D
:1018900001D18E60EDE7314A4FF0746748329042D3
:1018A00001D18F60E5E72D4B2D4A6033984201D17D
:1018B000CA60DEE7294C2B4B7834A04201D1CB60C3
:1018C000D7E7DFF898C0284C0CF1900C604501D1A7
:1018D000CC60CEE7DFF884904FF03D5C09F1A809B9
:1018E000484502D1C1F80CC0C3E72049DFF87C901D
:1018F0000839484502D1C1F80080BAE7DFF86C80AA
:1019000008F11808404501D10D60B2E7174D303598
:10191000A84201D10E60ACE7144D4835A84201D170
:101920000F60A6E7114D11496035091FA84201D18A
:101930000A609EE70D4A7832904201D10B6098E729
:101940000A4A9032904201D10C6092E7074AA832CD
:1019500090428ED1C1F800C08BE7000010600240B9
:101960003D000020400F002000003D201064024098
:10197000002904D0016841F48021016070470168AA
:1019800021F4802101607047002A04D0026842F4EB
:101990000022026003E0026822F40022026001617A
:1019A0007047406880B2704701460020096809030B
:1019B00000D501207047000002460020084B9A42E3
:1019C00001D2084A01E0064A103A8B0001D552685C
:1019D00000E01268044B1A400A4200D00120704710
:1019E00010640240006002407D0F7D0F30B500247E
:1019F0000F4A904201D20F4A01E00D4A103A0E4BB5
:101A0000194205D01E2303EAD12503682B4002E0CA
:101A1000406900F08003880001D5506800E010683C
:101A2000064A1040084201D003B10124204630BDCF
:101A300010640240006002403C0F3C0F7D0F7D0FA0
:101A40000B0609D522B1436943F08003436103E0EB
:101A5000436923F080034361802905D001F01E0112
:101A60001AB102680A430260704702688A43026042
:101A70007047000030B50368124A1340CC680A680A
:101A80002243D1E905452C432243CC6922430C6A09
:101A900022434C6A22438C6A22434C6B22438C6B58
:101AA00022431A430260426922F00703D1E90B2462
:101AB00022431A4342610A6942604A688260896827
:101AC000C16030BD3F801CF041607047704700002E
:101AD00030B51B4A83790168002B2AD013688B43E9
:101AE0001360111D0B680468A3430B600179114456
:101AF0000B68046823430B60114C083421680368A9
:101B000099432160231D19680568A943196041792B
:101B1000102905D011440A68006802430A6030BDEC
:101B20002168026811432160196800680143196047
:101B300030BD0079104402688A43026030BD000065
:101B4000003C014030B5B0EE401A9FED140A144B32
:101B500006211970134C19780A46491E04EB8105B9
:101B600004EB8202D5ED000AC2ED000AC9B2197079
:101B70000029F0D184ED001A197804EB8102D2ED2E
:101B8000000A00EB810292ED001A00EE810A491C66
:101B9000C9B219700629EFD330BD00000000000063
:101BA0002C040020F83A002030B5B0EE401A9FED2A
:101BB000140A144B06215970134C59780A46491ED1
:101BC00004EB810504EB8202D5ED000AC2ED000AA8
:101BD000C9B259700029F0D184ED001A597804EB8C
:101BE0008102D2ED000A00EB810292ED001A00EEB4
:101BF000810A491CC9B259700629EFD330BD0000D3
:101C0000000000002C040020143B002030B5B0EE92
:101C1000401A9FED140A144B06219970134C9978C1
:101C20000A46491E04EB810504EB8202D5ED000A49
:101C3000C2ED000AC9B299700029F0D184ED001AF2
:101C4000997804EB8102D2ED000A00EB810292ED5B
:101C5000001A00EE810A491CC9B299700629EFD317
:101C600030BD0000000000002C040020303B0020AC
:101C70002DE9F04110EE101A434A914202D3B9EE19
:101C8000040A06E010EE101A404A914201DBB1EE60
:101C9000040A11EE101A3E4A914202D39FED3D1AFA
:101CA00006E011EE101A3C4A914201DB9FED3B1A0F
:101CB00010EE901A3A4A914202D3DFED3A0A06E05A
:101CC00010EE901A384A914201DBDFED380ADFED61
:101CD000382A20EE220ABDEEC00A10EE102A21EEAC
:101CE000220A9FED341AC0EE012ABDEEE20A10EE80
:101CF000103A9FED310A20EE800AC0EE010ABDEED7
:101D0000E00A10EE101ADFED2D0A21EEA00ABDEE5A
:101D1000C00A10EE105A22EE200ABDEEC00A10EEE4
:101D2000106A274CFE272770EE27677040F01000DE
:101D3000A070E270100A20716371180AA071E1713D
:101D4000080A2072080C6072080EA072E572280A58
:101D500020736673300AA0730F21204605F028FA1D
:101D6000E0730F21204605F023FA000A207415497C
:101D700000200860144A0868235C1354401C086063
:101D80001028F8DDBDE8F0810000A0C00000A040F0
:101D9000000034C2000034C200003442000034426B
:101DA0000000BFC20000BFC20000BF420000BF422F
:101DB00000008043280FC940000000470000A044F5
:101DC0007C380020D4030020753C00202DE9FC5F06
:101DD0000121084601F0ACFB0121022001F0A8FB23
:101DE0000121042001F0A4FB0121102001F0A0FB3F
:101DF0000121202001F09CFB0121802001F098FBB3
:101E000001210E02304601F093FB0121402001F038
:101E10008FFB4FF4FC72009201258DF804508DF871
:101E2000075000248DF806408DF805405A4F69464A
:101E3000384600F0BFF8F821384600F00BF931467B
:101E4000384600F005F9202600968DF804508DF8EC
:101E500007508DF806408DF80540DFF840A169462F
:101E6000504600F0A7F82021504600F0F3F8009605
:101E700069464B4800F09EF84FF48069CDF8009019
:101E80006946484800F096F84946464800F0E2F8AE
:101E900060200090DFF810B16946584600F08AF8DB
:101EA0006021584600F0D6F80227009769463D4861
:101EB00000F080F800976946394800F07BF88DF80B
:101EC00004508DF807508DF806408DF805400097B6
:101ED0006946344800F06EF800966946584600F0AE
:101EE00069F84FF04008CDF800806946584600F088
:101EF00061F800966946504600F05CF80097694624
:101F0000274800F057F800956946264800F052F837
:101F1000CDF800808DF804508DF807408DF806400C
:101F20008DF8054069461F4800F044F804200090F1
:101F30008DF804408DF8074069461C4800F03AF8D7
:101F40008DF804408DF807508DF806408DF8054057
:101F5000CDF800906946134800F02CF86802009014
:101F6000134D6946284600F025F88DF804408DF899
:101F700007708DF806408DF80540009669462846A2
:101F800000F018F8CDF800806946284600F012F8F5
:101F900000F047F9BDE8FC9F001802400000024035
:101FA00000080240001402400010024000040240F9
:101FB000002002402DE9F041002201274FF0030CE0
:101FC00007FA02F50B682B40AB422CD10668530090
:101FD0000CFA03F4A64306600E79D0F800809E4008
:101FE00046EA080606600E79012E01D0022E12D1B3
:101FF0008668A64386604E79D0F808809E4046EAFF
:10200000080686604668AE43466045688E7996400D
:10201000B6B235434560C568A543C560CC799C40E0
:10202000C3681C43C460521C102AC9D3BDE8F081A8
:1020300010B54B07DB0E9A40C90800EB8100016A1E
:102040000F249C40A1430162016A1143016210BD4B
:102050004183704701837047002A01D00183704794
:10206000418370472DE9F047C8B00026DFF874912E
:102070005D4FDFF878814FF4907A06EB460000EB75
:10208000061009EB001404F1100152466846FEF7F1
:102090007BF994E80F0002F01EFE00287CD0E07B64
:1020A000401EC0B2A17B012902D002293ED11EE010
:1020B00008EB801521462846FFF7C0FA2888A06162
:1020C000B5F9040000EE100AB8EEC00A84ED0C0A5F
:1020D00095ED040AB8EEC00A84ED090AB5F90600C8
:1020E00000EE100AB8EEC00A84ED0E0A1EE0404A67
:1020F000214602EB80152846FFF7A0FA2888A06148
:10210000B5F9040000EE100AB8EEC00A84ED0C0A1E
:1021100095ED040AB8EEC00A84ED090AB5F9060087
:1021200000EE100AB8EEC00A84ED0E0A60780328AB
:1021300032D105F02BFC207C022802D003282BD1C1
:1021400015E03888022827D197ED060A84ED070AA2
:1021500097ED070AB8EEC00A84ED0C0A94ED090A5F
:1021600084ED0A0A97ED080A84ED090A14E038881C
:10217000032811D197ED060A84ED070A97ED070AA7
:10218000B8EEC00A84ED0C0A94ED090A84ED0A0A3F
:1021900097ED080A84ED090A761CF6B2112EFFF4B9
:1021A0006CAF00201349144C0B78062B09D0072B79
:1021B00007D008EB801100228A600A888D8A521BA2
:1021C000CA6008EB801104EB40020D8A95848D886B
:1021D0009582C9889187401CC0B20328E5D948B0D0
:1021E000BDE8F087C80D00201C38002090070020B3
:1021F00050090020980000206C0B00200148006866
:10220000704700004000002004480168491C01603C
:102210000168491C00D101607047000040000020A7
:10222000FEE73EB50121880301F0ACF9022101204F
:1022300001F0B2FA08248DF8084002208DF8090058
:102240008DF80A0001258DF80B5002A801F0FAF86C
:102250000420009000208DF804008DF805408DF8D2
:1022600006506846FFF734FC3EBD00009FEDDD0AD6
:10227000DD4880ED100A80ED000A80ED500ADFEDA8
:10228000DB0AC0ED200A80ED300ADFEDD90AC0ED8F
:10229000600ADFEDD80AC0ED700ADFEDD70AC0EDA5
:1022A000800A80ED900ADFEDD50AC0EDA00ADFEDCF
:1022B000D40AC0EDB00ADFEDD30AC0EDC00A80ED4C
:1022C000110ADFEDD10AC0ED010AB1EE001A80ED6E
:1022D000511A80ED210A80ED310A80ED410ADFEDCF
:1022E000CB0AC0ED610ADFEDCA0AC0ED710ADFED6D
:1022F000C90AC0ED810A80ED910A80EDA10ADFEDE7
:10230000C60AC0EDB10A80EDC10AF3EE061AC0EDAF
:10231000121A9FEDC22A80ED022A80ED521A80ED3A
:10232000220A80ED320A80ED420A9FEDBD3A80ED2F
:10233000623ADFEDBC0AC0ED720A9FEDBB4A80ED48
:10234000824A80ED920AF9EE044AC0EDA24A80ED7D
:10235000B20A80EDC20A80ED130ADFEDB42AC0EDA7
:10236000032A80ED531A80ED230A80ED330A80EDB5
:10237000430ADFEDAF2AC0ED632ADFEDAE2AC0EDE0
:10238000732AFAEE002AC0ED832A80ED930AFAEE52
:10239000042AC0EDA32A80EDB30ADFEDA73AC0ED11
:1023A000C33ADFEDA63AC0ED143A80ED040A80EDA1
:1023B000540A80ED240A80ED340A80ED440ADFEDF2
:1023C000A03AC0ED643ADFED9F3AC0ED743ADFED1C
:1023D0009E3AC0ED843A80ED940A80EDA40A9FED08
:1023E0009B5A80EDB45ADFED9A3AC0EDC43AC0ED85
:1023F000151A80ED052A80ED551A80ED250A80ED2D
:10240000350A80ED450A80ED653AC0ED750A80ED2C
:10241000854A80ED950AC0EDA54A80EDB50A80EDAC
:10242000C50A9FED8C3A80ED163ADFED8B0AC0EDC0
:10243000060A80ED560A80ED260A80ED360A80ED08
:10244000460A80ED660A80ED760A80ED860ADFEDA9
:10245000830AC0ED960AC0EDA60A80EDB60A80EDAB
:10246000C60AC0ED171A9FED7E4A80ED074A80ED3F
:10247000570A80ED270A80ED370A80ED470A9FED65
:10248000794A80ED674A9FED784A80ED774A9FED63
:10249000774A80ED874A80ED970AC0EDA72A80ED44
:1024A000B70A80EDC70AC0ED181ADFED714AC0ED1A
:1024B000084A80ED580A80ED280A80ED380A80ED40
:1024C000480ADFED6C4AC0ED684ADFED6B4AC0EDAB
:1024D000784A80ED884A80ED980AC0EDA82A80ED00
:1024E000B80A80EDC80AF2EE042AC0ED192A9FED61
:1024F000634A80ED094AB3EE044A80ED594A9FEDE4
:10250000604A80ED294A80ED390A80ED490A9FED45
:102510005D4A80ED694A9FED5C4A80ED794A80ED25
:10252000890A80ED990A80EDA90A80EDB95AC0EDBB
:10253000C93A80ED1A3AC0ED0A2A80ED5A0A80EDB8
:102540002A0A80ED3A0A80ED4A0A80ED6A0A80ED97
:102550007A0A80ED8A0AC0ED9A0AC0EDAA0A80EDD7
:10256000BA0A80EDCA0AC0ED1B1A80ED0B2A80ED75
:102570005B1A80ED2B0A80ED3B0A80ED4B0A9FED44
:10258000431A80ED6B1A9FED421A80ED7B1ABAEE6A
:10259000081A80ED8B1A80ED9B0A9FED3E1A80EDA4
:1025A000AB1A80EDBB0A80EDCB0A80ED1C3AB2EE8F
:1025B000001A80ED0C1A80ED5C0A80ED2C0A80ED8B
:1025C0003C0A80ED4C0A80ED6C0A80ED7C0A80EDBF
:1025D0008C0AC0ED9C0AC0EDAC0A80EDBC0A80ED0F
:1025E000CC0A704700000000F821002000000743DB
:1025F000CBF8FAC03CBD584000004E43000020C25A
:1026000000005C43000028430000FA43C6C49B401E
:1026100098A360413333B5C2000058C200002F4474
:10262000D67243C0750262400000F4C200901C459F
:1026300050C200C160A36EBF0000A04233331341FB
:10264000B3DEC5BF2BD58A3E0000DCC20000744259
:10265000000005C300004843000048420000B442A7
:1026600000008C4301308B40A2625A4100009EC2A0
:102670000000A543645D6440C1CA804100009644E7
:102680000000BEC21B4C8640033E4140ECC006C168
:102690001F850BBF0000A0C2FEE70FB470B5044653
:1026A000109D9DED0F2ADDED0E1A9DED0D1ADDED4D
:1026B0000C0A9DED0B0A294604F1400000F000FFD2
:1026C0009DED0A2ADDED091A9DED081ADDED070AD8
:1026D0009DED060A294604F1900070BC5DF814EBEC
:1026E00000F0EEBE00EB400101EB001115484FF485
:1026F000FA6200EB0110E4308188B2FBF1F1B0F92D
:1027000002205143104A01F5FA71D16010F8E42912
:10271000012A09D0022A0BD0032A0DD0042A0FD196
:10272000D0F8E00001F048BCD0F8E00001F03EBC79
:10273000D0F8E00001F03CBCD0F8E00001F03ABC79
:1027400070470000C80D0020FC00002000B50122E9
:102750000A21002004F05AFB6FF022020B21012015
:1027600004F054FB9FED272A01239FED270AF0EE8A
:10277000420A07220321022004F016FB0123F0EE97
:10278000420AB0EE420A08220321022004F00CFBA8
:1027900004210122084604F039FB2D2209210520DD
:1027A00004F034FB01220D21062004F02FFB01224E
:1027B0000E21072004F02AFB03220C21082004F03C
:1027C00025FB0123F8EE000AB0EE000A0F220921D2
:1027D0000A2004F0E9FA0123F8EE000AB8EE000A34
:1027E000102209210A2004F0DFFA012206210B2021
:1027F00004F00CFB012205210C205DF804EB04F031
:1028000005BB0000333313C0333313402DE9F047C9
:10281000CCB000248DF8004001268DF801608DF8C1
:102820000E608DF80F60ADF814408DF808408DF8FB
:102830000940ADF80A404FF4987ABA4852466946C2
:10284000FDF7A2FD51466846FDF7B7FD0A208DF859
:1028500000008DF801608DF80E6005208DF80F00E6
:102860008DF812608DF8114040F2DC50ADF8140084
:102870008DF808408DF809404FF64450ADF80A0035
:10288000A94852466946FDF77FFD51466846FDF767
:1028900094FD0B208DF800008DF8016002258DF865
:1028A0000E504FF006088DF80F808DF812608DF8ED
:1028B000114040F2DC50ADF814008DF808408DF85E
:1028C00009404FF42F70ADF80A0098485246694607
:1028D000FDF75AFD51466846FDF76FFD09208DF85A
:1028E00000008DF801508DF80E5005208DF80F0076
:1028F0008DF81260ADF814408DF808408DF809404D
:102900004FF62420ADF80A00894852466946FDF783
:102910003BFD51466846FDF750FD07278DF80070D6
:102920008DF801508DF80E5004208DF80F008DF8B1
:102930001260ADF814408DF808408DF809404FF64C
:10294000E040ADF80A007B4852466946FDF71CFDA1
:1029500051466846FDF731FD08208DF800008DF8DE
:1029600001508DF80E508DF80F708DF81260ADF893
:1029700014408DF808408DF809404FF44879ADF8BF
:102980000A906D4852466946FDF7FEFC514668467E
:10299000FDF713FD0C208DF800008DF801508DF827
:1029A0000E5003278DF80F708DF81260ADF81440AB
:1029B0008DF808408DF809404FF62420ADF80A0044
:1029C0005E4852466946FDF7DFFC51466846FDF712
:1029D000F4FC0D208DF800008DF801708DF810507A
:1029E000ADF814408DF808408DF809407820ADF816
:1029F0000A00534852466946FDF7C6FC51466846F0
:102A0000FDF7DBFC0E208DF800008DF801708DF8CD
:102A10001070ADF814408DF808408DF809404FF65D
:102A20001840ADF80A00474852466946FDF7ACFC2D
:102A300051466846FDF7C1FC8DF8008004208DF8F2
:102A40000100414F38978DF8E4004FF48778ADF8D6
:102A5000E8803E4852466946FDF796FC5146684676
:102A6000FDF7ABFC05208DF8000004208DF8010077
:102A700038978DF8E450ADF8E880354852466946FD
:102A8000FDF782FC51466846FDF797FC0F208DF854
:102A900000008DF801508DF80E508DF80F608DF804
:102AA0001260ADF814408DF808408DF80940ADF87B
:102AB0000A901C4940F21D1001EB00105246694675
:102AC000FDF762FC51466846FDF777FC10208DF853
:102AD00000008DF801508DF80E508DF80F508DF8D4
:102AE0001260ADF814408DF808408DF809404FF69B
:102AF000E040ADF80A00174852466946FDF744FC2D
:102B000051466846FDF759FC012000F0BBF903214E
:102B1000002000F021F8FFF7A9FB4CB0BDE8F0471A
:102B2000FFF714BEC80D0020A8190020D81A0020F5
:102B3000781800201816002048170020081C0020D4
:102B4000381D0020681E002000080040E814002006
:102B5000B8130020C82000202DE9F043C9B08946F1
:102B60000026411CCCB200EB4001DFF8588001EB9D
:102B7000001008EB00171FE004EB440000EB04100A
:102B800008EB0010394605464FF49872FDF7FCFB40
:102B900005F110014FF490726846FDF7F5FB95E8DA
:102BA0000F0002F098F828B1761CF6B22C70F87B72
:102BB0003044E873641CE4B24C45DDD949B0BDE84B
:102BC000F0830000C80D002070B50A4E0A4D0DE0DC
:102BD00001EB410303EB011305EB03131C18A41BCA
:102BE00094ED480A83ED480A491CC9B29142EFD9D5
:102BF00070BD0000EC3A0020C80D002000EB400141
:102C000001EB0011174800EB0110817B012902D074
:102C100002290DD106E0C17B134A02EB4101828FEC
:102C20000A8005E0C17B114A02EB4101828F0A80D4
:102C3000417803290AD1017C022908D0032905D152
:102C40000B49828F0A800B49C06A086070470A49A5
:102C5000828F0A800949C26A0A600949406A08608D
:102C600070470000C80D00203C0B00204E0B0020D8
:102C700010010020180100200C0100201401002088
:102C80001C0100202DE9F0412DED048BC8B0012678
:102C90000725534F05EB450000EB051007EB00142B
:102CA000207803287ED904F110014FF49072684611
:102CB000FDF76AFB94E80F0002F00DF8002871D0D0
:102CC000607A002878D16078012803D0022801D0EA
:102CD00048B126E0B4F90A1000EE101AB8EEC00AA6
:102CE00084ED0D0A1DE0A169A1F28F6100290ADDC2
:102CF000B4F90A10C1F1000100EE101AB8EEC00AD2
:102D000084ED0D0A0DE008DAB4F90A1000EE101A8D
:102D1000B8EEC00A84ED0D0A03E094ED090A84EDD3
:102D20004A0A032848D0D4F834804046FDF770FCA6
:102D300041EC100B02F0B0F99FED2A1B51EC100B87
:102D400053EC112BFDF7F2FB41EC180B206BFDF758
:102D50005FFC41EC100B02F09FF9B0EE409AF0EEF0
:102D6000609A4046FDF754FC41EC100B02F094F9D8
:102D7000B0EE401AF0EE601A53EC192B51EC110B27
:102D8000FDF7CEFB53EC182BFDF76EFC14D2A08997
:102D9000401C80B2A081C8280ED90120607294ED39
:102DA000090A01E011E007E084ED4A0A9FED0F0AED
:102DB00084ED0D0A0020A081284600F019F828466D
:102DC000FFF71CFF607A00B900266D1CEDB2112DD3
:102DD000FFF460AF48B03046BDEC048BBDE8F08135
:102DE000C80D0020333333333333E33F000000009A
:102DF00070B500EB400101EB0011214800EB01141C
:102E000004F19005A07C04F14006022802D00128BC
:102E100018D023E0D4ED0B0A94ED090A304606F0F1
:102E200047FBD4ED1D0AC4ED0D0A94ED0C0A2846AB
:102E300006F03EFB94ED310ABDEEC00A10EE100A1A
:102E4000A0870BE0D4ED0D0A94ED0C0A284606F09D
:102E50002FFBBDEEC00A10EE100AA0876078032891
:102E60000DD1D4ED0B0A94ED090A304606F020FB93
:102E700094ED1D0ABDEEC00A10EE100AA08770BDC9
:102E8000C80D002070B504462DED0C8B94B00020C9
:102E90008DF824009FEDDF0A8DED0F0A9FEDDEBA5D
:102EA0008DED10BA9FEDDD9A8DED119A9FEDDC0A44
:102EB0008DED120A9FEDDA0A8DED130A9FEDD50A0A
:102EC0008DED0A0A8DED0BBA8DED0C9A9FEDD40AAB
:102ED0008DED0D0A9FEDD20A8DED0E0A0CA9202270
:102EE0000D4668460894FDF74FFA09A9CD480EC96A
:102EF000FFF7D3FB0A208DF82400F3EE0EAACDEDE8
:102F00000FAA9FEDC9AA8DED10AA9FEDC88A8DED7D
:102F1000118A9FEDC7CA8DED12CADFEDC68ACDEDCD
:102F2000138AF3EE04BACDED0ABA9FEDC30A8DED14
:102F30000B0A8DED0C8ADFEDC19ACDED0D9ACDED2A
:102F40000E8A2022294668460894FDF71DFA09A931
:102F5000BB480EC9FFF7A1FB0B208DF82400CDED77
:102F60000FAA8DED10AA8DED118A8DED12CACDED4F
:102F7000138A8DED0C8ACDED0D9ACDED0E8A2022AF
:102F8000294668460894FDF7FFF909A9AD480EC91E
:102F9000FFF783FB04208DF824008DED0F8A8DED63
:102FA000108A8DED118A8DED128A8DED138A9FEDB9
:102FB000990A8DED0A0A8DED0BBA8DED0C9A9FEDF5
:102FC000A20A8DED0D0A8DED0E0A202229466846D3
:102FD0000894FDF7D9F909A99C480EC9FFF75DFBD4
:102FE00007208DF82400CDED0FAA8DED10AA8DEDF0
:102FF000118A9FED97DA8DED12DACDED138ACDEDC2
:103000000ABA8DED0C8ACDED0D9ADFED92CACDEDA9
:103010000ECA2022294668460894FDF7B5F909A989
:103020008D480EC9FFF739FB09208DF82400B2EE58
:103030000F0A8DED0F0A8DED109A8DED118ACDEDF1
:10304000129ACDED138AB3EE000A8DED0A0A8DEDCA
:103050000C8ACDED0D9ACDED0E8A202229466846C8
:103060000894FDF791F909A97C480EC9FFF715FBF3
:103070000C208DF82400CDED0FAA8DED10AA8DED5A
:10308000118A9FED770A8DED120ACDED138ACDEDF1
:103090000ABA8DED0C8A9FED730A8DED0D0ACDED08
:1030A0000ECA2022294668460894FDF76DF909A941
:1030B0006D480EC9FFF7F1FA0D208DF82400F7EEE8
:1030C00000DACDED0FDA8DED108AB2EE040A8DED47
:1030D000110A8DED120A9FED65CA8DED13CA8DEDB3
:1030E0000ABA8DED0B8A8DED0C9A9FED610A8DED7C
:1030F0000D0A8DED0ECA2022294668460894FDF778
:1031000043F909A95B480EC9FFF7C7FA0E208DF8ED
:1031100024008DED0F9A8DED108A9FED570A8DEDED
:10312000110A8DED129A8DED13CACDED0ADA8DEDEF
:103130000C8A8DED0DAA8DED0ECA20222946684617
:103140000894FDF721F909A94C480EC9FFF7A5FA23
:1031500008208DF82400CDED0FAA8DED10AA8DED7D
:10316000118A8DED12DACDED138ACDED0ABA8DED0F
:103170000BBA8DED0C9ACDED0D9ACDED0ECA202235
:10318000294668460894FDF7FFF809A93C480EC98E
:10319000FFF783FA0F208DF82400CDED0FAA8DEDF7
:1031A00010AA8DED118ACDED129ACDED138A8DED19
:1031B0000C9ACDED0D9ACDED0E8A20222946684657
:1031C0000894FDF7E1F809A92E480EC9FFF765FA42
:1031D00010208DF82400CDED0FAA8DED10AA8DEDF5
:1031E000118ACDED129ACDED138A8DED0C9ACDEDAD
:1031F0000D9ACDED0E8A2022294668460894FDF7E7
:10320000C3F809A920480EC9FFF747FA14B0BDEC6E
:103210000C8B70BD000070420AD7233CCDCCCC3D56
:103220000060EA46C80D0020CDCC4C3E00000000F6
:1032300000409C450000FA436F12833A00007A4533
:10324000A8190020D81A002000007A448812002013
:103250000000FA440080BB441816002078180020B3
:103260000080894500803B45081C00209A99193F41
:10327000CDCC4C3D381D002000004842681E002087
:1032800048170020981F0020C8200020CAB005F071
:10329000BDFF5D4E7060DFF874B15D4FDFF8749173
:1032A0004FF4907A4FF001084FF0FF3349AA4FF4E2
:1032B0008001002008F0F0FC0128F5D1307838B901
:1032C000FFF7A4FAFDF724FD00F07CFA86F80080F1
:1032D000002404EB440000EB041007EB001505F19B
:1032E000100152466846FDF74FF80FCD01F0F3FC90
:1032F00010B92046FFF7F6F9641CE4B2112CE8D3AC
:103300004348303803F08CFF4148203803F088FFF1
:103310003F48103803F084FF4998400267D53E4883
:103320000078002863D07078A0B302F0CFFD0725A5
:1033300005EB450000EB051007EB0014207803288F
:1033400051D904F1100152466846FDF71DF894E882
:103350000F0001F0C0FCB8B36078032836D002211A
:10336000A174607C78B3707868B384F8128094EDAF
:103370000B0AD4ED090A30EE600A10EE100A584527
:1033800014DDB4F9140000EE100AB8EEC00A84EDA2
:103390000D0A1BE0FFE7FFF775FC707001220023A8
:1033A0005106D9F8000008F0C7FA20E010EE100A24
:1033B00058450ADAB4F91400404200EE100AB8EE9B
:1033C000C00A84ED0D0A01E00DE0A1742846FFF764
:1033D0000FFD2846FFF712FC01220023D105D9F882
:1033E000000008F0A9FA6D1CEDB2112DA0D30B4816
:1033F00001220023D105006808F09EFA002007F0A2
:103400004BFCB06050E70000FC0000200000C84208
:10341000C80D00203C000020980000201C00002067
:10342000024602210148FEF717BE000000080240D4
:10343000024601210148FEF70FBE000000080240CD
:103440007047000030B50F23C27801250178002AAB
:103450001FD0154A126802F4E062C2F5E062C2F3BE
:103460000722C2F10404D3404278A24084781C4071
:103470001443220101F1E02181F80024007800F0DA
:103480001F018D404009800000F1E020C0F800518C
:1034900030BD01F01F0085404809800000F1E020A8
:1034A000C0F8805130BD00000CED00E00249084337
:1034B00002490860704700000000FA050CED00E0CA
:1034C00010B504462DED048BB0EE408AF0EE608A14
:1034D000B0EE419A144800290DD06064B0EE491A4C
:1034E000F0EE680AB0EE480ABDEC048B2046BDE859
:1034F000104006F053B860640C48A064B0EE491A5E
:10350000F0EE680AB0EE480A204606F047F8A16CD3
:10351000B0EE491AF0EE680AB0EE480ABDEC048B32
:103520002046BDE8104008479D950008BD9500085D
:10353000054A002903D011680143116070471168E2
:10354000814311607047000030380240054A00296D
:1035500003D0116801431160704711688143116005
:103560007047000040380240054A002903D0116826
:10357000014311607047116881431160704700007A
:1035800020380240054A002903D011680143116028
:103590007047116881431160704700004438024051
:1035A000054A002903D01168014311607047116872
:1035B00081431160704700002438024070B5244BED
:1035C000196801F00C01234C00291ED0224E042959
:1035D0001DD008291DD00460196801F0F001090907
:1035E0001E4A545C0168E14041601C6804F4E054E8
:1035F000A40A145D21FA04F484601B6803F4604398
:103600005B0BD25CD140C16070BD0460E4E7066032
:10361000E2E70F4A121F1168C1F38055116801F0EB
:103620003F0135B1B6FBF1F11468C4F3881461436E
:1036300005E0B4FBF1F11468C4F388146143126827
:10364000C2F30142521C5200B1FBF2F10160C3E728
:10365000083802400024F400001BB70036040020A4
:10366000012A07D0022A07D0032A07D0042A07D14B
:1036700000F0A2BC00F09ABC00F09ABC00F09ABC2A
:10368000704700007CB501210420FFF751FF0120A5
:103690008DF804000720009002248DF805400B4DA2
:1036A00069462846FEF786FC00218DF8041030217B
:1036B00000918DF8054069462846FEF77BFC012005
:1036C000FFF7B6FE0020FFF7ABFE7CBD000802400E
:1036D00070B502460C462B4D2978002901D105F022
:1036E00025FD2948824237D120680146A0F50070A7
:1036F000013805D0012803D0022801D0032815D1B4
:10370000491EC8B2A870214901EB801081694A1C8A
:103710008261322903D8214604F0E6F802E021460E
:1037200003F0C2FDA878401C03F0ECFD2078401E99
:10373000C0B26870164901EB801081694A1C826131
:10374000322904D82146BDE8704004F0CDB82146A6
:10375000BDE8704003F0A8BD2078401EC0B2E870FC
:103760000C4901EB801081694A1C8261322904D81E
:103770002146BDE8704004F0B7B82146BDE870406E
:1037800003F092BD440000200064004010050020BA
:10379000900700205009002010B58A07120F0F2350
:1037A000934021F003040649214401F608010C6806
:1037B0009C430C600B68904003430B6010BD0000FD
:1037C000003001400348DC21A0F80618A821A0F829
:1037D000D6167047C80D00201CB50021019100913C
:1037E0002E4A106840F4803010604FF4A0431068F7
:1037F00000F4003000900198401C0190009810B92E
:1038000001989842F3D11068800302D501200090FE
:1038100000E00091009801283FD120484030016825
:1038200041F0805101601E49086840F44040086042
:103830001A48083003680360036843F400430360D8
:10384000036843F4A0530360041F164B23601368FE
:1038500043F08073136013689B01FCD50A6842F43F
:1038600080320A604A68D203FCD50A6842F400320A
:103870000A604A689203FCD50B4A40F20571116058
:10388000016821F003010160016841F0020101605B
:103890000168C1F381010229FAD11CBD0038024040
:1038A00000700040062D4008003C0240012080F3DB
:1038B0001388BFF34F8F05480168054A01F4E061A2
:1038C00011430160BFF34F8FFEE700000CED00E0F5
:1038D0000100FA054FF0E021042804D0086920F027
:1038E000040008617047086940F0040008617047EF
:1038F00010B508F04FF9012803D0BDE8104007F0DB
:1039000039BD10BD10B504466FF00400FFF7E2FFAB
:103910000649E008087000EB4002C2EBC0104FF609
:10392000FF7202EAC000488010BD00003004002091
:1039300010B51248016841F4700101601048016837
:1039400041F0010101600E4A002108321160026855
:103950000C4B1A400260031D0B4A1A60026822F4E5
:103960008022026006480C300160FFF735FF0349F2
:103970004FF000608039086010BD000088ED00E065
:1039800000380240FFFFF6FE103000241CB5054849
:103990000221CDE900100023802203A1054807F091
:1039A0009BFF1CBD1400002073746172745F74610E
:1039B000736B000045A600082DE9F0418AB0064669
:1039C0000D4601210846FFF7B3FD01210846FFF728
:1039D000BDFDDFF8D080012211464046FEF728FBEE
:1039E000012200214046FEF723FB0122032140462D
:1039F000FEF71EFB012202214046FEF719FB0F20B5
:103A0000089002208DF8240001278DF827700024EB
:103A10008DF8264003208DF8250008A94046FEF7C2
:103A2000C9FA0696ADF81450ADF81C40ADF8164032
:103A3000BD0705A9284600F0C1FA6021ADF80010C5
:103A4000ADF80C40ADF802704FF47A7102916946FE
:103A5000284600F09FF96946284600F0D5F96946E6
:103A6000284600F01FFA6946284600F063FA08214C
:103A7000284600F0C3F90821284600F009FA082179
:103A8000284600F051FA0821284600F085FA012165
:103A9000284600F017F90121284600F058F90AB02D
:103AA000BDE8F0810000024010B5074C012120461E
:103AB00000F059F908B1FEF7A7FB2046BDE8104019
:103AC000012100F041B90000000400402DE9F0415F
:103AD0008AB006460D4601210820FFF729FD012185
:103AE0000420FFF733FDDFF8C48002220F21404697
:103AF000FEF79EFA02220E214046FEF799FA0222B4
:103B00000D214046FEF794FA02220C214046FEF7B2
:103B10008FFA4FF47040089002208DF8240001279E
:103B20008DF8277000248DF8264003208DF825009D
:103B300008A94046FEF73EFA0696ADF81450ADF8D7
:103B40001C40ADF816401A4D05A9284600F036FA7B
:103B50006021ADF80010ADF80C40ADF802704FF4E4
:103B60007A7102916946284600F0E4F969462846D0
:103B700000F098F96946284600F046F908212846E1
:103B800000F00AFA0821284600F0CEF9082128465C
:103B900000F07EF90121284600F094F80121284622
:103BA00000F0D5F80AB0BDE8F0810000000C02403A
:103BB000000800402DE9F0438BB081460E460121FC
:103BC0000802FFF7B5FC01218020FFF7B1FC0121BD
:103BD0000820FFF7BBFC384F022200213846FEF7D1
:103BE00027FADFF8D88002220A214046FEF720FAA1
:103BF00002220B214046FEF71BFA02220C2140460E
:103C0000FEF716FA0125099502208DF828008DF897
:103C10002B5000248DF82A4003208DF8290009A993
:103C20003846FEF7C7F94FF4E050099009A940461D
:103C3000FEF7C0F9CDF81C90ADF81860ADF8204043
:103C4000ADF81A401E4E06A9304600F0B7F96021C3
:103C5000ADF80410ADF81040ADF806504FF47A718D
:103C6000039101A9304600F065F901A9304600F042
:103C700019F901A9304600F0C7F801A9304600F053
:103C800089F80821304600F087F90821304600F015
:103C90004BF90821304600F0FBF80821304600F0CF
:103CA000ADF80121304600F00DF80121304600F05A
:103CB0004EF80BB0BDE8F08300200240001C02402B
:103CC000000C0040002904D0018841F080010180EF
:103CD0007047018821F08001018070477FB504465C
:103CE0000D4601210220FFF731FC02944FF6FF70D0
:103CF00000EA4500ADF804000024ADF80C40ADF832
:103D00000640104D01A9284600F058F9012211463D
:103D1000284600F034F80121284600F015F81D214E
:103D20008DF800108DF801408DF8024001218DF8CA
:103D300003106846FFF786FB0121284600F007F8CC
:103D40007FBD000000040040C94301827047002984
:103D500004D0018841F0010101807047018821F001
:103D600001010180704702460020138A0B409289AE
:103D70000A40002B02D0002A00D001207047002A00
:103D800003D082890A438281704782898A43828173
:103D90007047000030B5028C22F001020284058CCD
:103DA0008388028B22F0700222F003020C881443F5
:103DB00025F002028D8915434A882A430D4DA842F9
:103DC00002D00D4DA8420FD122F00805CA892A431E
:103DD00022F004058A882A4323F4807323F40073B5
:103DE0000D8A1D434B8A2B4383800483896841637A
:103DF000028430BD0000014000040140028B22F02B
:103E000008020A430283704770B5028C22F0100248
:103E10000284028C8388048B24F4E04424F44076EA
:103E20000D884FF6FF7404EA0525354322F0200281
:103E30008E8904EA061616434A8804EA02123243BF
:103E4000114EB04202D0114EB04217D122F0800282
:103E5000CE8904EA0616164326F040068A8804EA4C
:103E60000212324323F4806323F400630E8A04EACF
:103E700086061E434B8A04EA83033343838005830B
:103E800089688163028470BD000001400004014024
:103E9000028B22F400624FF6FF7303EA0121114303
:103EA0000183704770B5028C22F480720284028C08
:103EB0008388848B24F0700424F003040D88254348
:103EC00022F400728E894FF6FF7404EA0626164328
:103ED0004A8804EA02223243114EB04202D0114E07
:103EE000B04217D122F40066CA8904EA02223243A2
:103EF00022F480668A8804EA0222324323F4805343
:103F000023F400530E8A04EA06161E434B8A04EA81
:103F100003133343838085838968C163028470BD42
:103F20000000014000040140828B22F008020A4395
:103F30008283704770B5028C22F480520284058C13
:103F40008288838B23F4E04323F440760C884FF679
:103F5000FF7303EA0424344325F400558E8903EAF1
:103F600006362E434D8803EA05353543084EB042E8
:103F700002D0084EB04205D122F480460A8A03EAF4
:103F8000821232438280848389680164058470BD13
:103F90000000014000040140828B22F400624FF6D1
:103FA000FF7303EA01211143818370474163704726
:103FB00081637047C16370470164704730B5028800
:103FC000164C174DA0420DD0A8420BD0B0F1804F37
:103FD00008D0144B984205D0134B984202D0134B93
:103FE000984203D122F070034A881A43104B98423A
:103FF00006D0104B984203D022F440730A891A432A
:1040000002804A68C2620A880285A04201D0A842A2
:1040100001D1897A01860121818230BD00000140F1
:10402000000401400004004000080040000C004073
:10403000001000400014004070B588B001214020FD
:10404000FFF776FA01218C072046FFF77FFA01215E
:104050002046FFF789FA00212046FFF785FA234E14
:10406000082207213046FDF7E3FF082211463046BB
:10407000FDF7DEFF4FF4C071069102218DF81C1090
:1040800000248DF81E4001258DF81F5003218DF866
:104090001D1006A93046FDF78DFF154E304600F085
:1040A000F5FC4FF4E1310291ADF80C40ADF80E4053
:1040B000ADF810400C20ADF81200ADF8144002A984
:1040C000304600F0A5FD0121304600F0C9FC522029
:1040D0008DF8040005208DF805008DF806408DF858
:1040E000075001A8FFF7AEF908B070BD00100240FC
:1040F0000078004030B587B001211020FFF718FA92
:104100000121CC072046FFF721FA01212046FFF7C5
:104110002BFA00212046FFF727FA284D082200211C
:104120002846FDF785FF082201212846FDF780FF7C
:104130000321059102228DF8182000248DF81A40E1
:104140008DF81B408DF8191005A92846FDF732FFA0
:104150001B4D284600F09AFC4FF461210191ADF807
:104160000840ADF80A40ADF80C400C21ADF80E1037
:10417000ADF8104001A9284600F04AFD102128465C
:1041800000F062FC012240F22441284600F025FDA7
:104190000121284600F064FC53208DF80000052022
:1041A0008DF801008DF8024001208DF8030068466B
:1041B000FFF748F900F006F807B030BD00100240E4
:1041C000007C004030B591B001214805FFF7B0F9FF
:1041D00001224021274800F04FFC274D2846FDF7DB
:1041E00031FB280502902348001D039023480490CA
:1041F0000024059427200690079428150890099418
:104200000A9480100B904FF440300C900D940320D2
:104210000E900F94109402A92846FDF72BFC174925
:10422000002227312846FDF7AFFB01212846FDF784
:104230009FFB012210212846FDF702FC11208DF87A
:10424000040005208DF805008DF8064001208DF84A
:10425000070001A8FFF7F6F809492846FDF7D0FA4C
:1042600000212846FDF7E2FA01212846FDF7DEFA93
:1042700011B030BD007C0040A0600240F93B00203E
:104280000004001010B50E4C1021204600F07EFCFA
:10429000002814D040F22441204600F07EFC002883
:1042A0000DD027220021074802F0E9FF204600F048
:1042B0000DFD2046BDE81040102100F0C5BB10BD2B
:1042C000007C0040B427002070B588B00121022096
:1042D000FFF72EF901211020FFF754F901211020DA
:1042E000FFF75EF900211020FFF75AF9284E072248
:1042F00011463046FDF79CFE8021069102218DF883
:104300001C1000248DF81E4001258DF81F5003213C
:104310008DF81D1006A93046FDF74CFE1D4E3046A7
:1043200000F0B4FB1C490291ADF80C40ADF80E4012
:10433000A902ADF810100420ADF81200ADF8144039
:1043400002A9304600F064FC0121304600F088FBF1
:104350001021304600F078FB1021304600F078FB49
:10436000012240F22441304600F037FC25208DF830
:10437000040005208DF805008DF806408DF80750E3
:1043800001A8FFF75FF800F009F808B070BD000061
:104390000004024000100140A086010010B590B05A
:1043A00001218805FFF7C4F8012240211C4800F0D4
:1043B00063FB1C4C2046FDF745FA4FF0006001906E
:1043C0001748001D029018480390002104912420F2
:1043D00005900691201507900891099180100A9088
:1043E0004FF440300B900C9103200D900E910F91E3
:1043F00001A92046FDF73EFB0B490022243120464F
:10440000FDF7C2FA01212046FDF7B2FA002120464D
:10441000FDF70CFA01212046FDF708FA10B010BD97
:104420000010014040640240633B00202DE9F04150
:10443000384D1021284600F0A9FB002867D040F233
:104440002441284600F0A9FB002860D0284600F04F
:104450003DFC314F3846FDF7A7FA304C304E68B17D
:1044600001213846FDF7E2F92E48FDF79AFAC0F12E
:10447000240080B22080242826D02DE00021384658
:10448000FDF7D4F93846FDF78CFAC0F1240080B26C
:104490002080242806D12449244805F097FE0520D1
:1044A00002F030FF3C4624212046FDF70DFB20683A
:1044B00040F40020206031462046FDF7A1F901219B
:1044C0002046FDF7B3F918E017491848243105F0E4
:1044D0007DFE052002F016FF3C4624212046FDF714
:1044E000F3FA206820F40020206031462046FDF7D2
:1044F00087F901212046FDF799F91021284600F09F
:10450000A3FA2846BDE8F041102100F0A1BABDE8A9
:10451000F08100000010014040640240340400209B
:104520000000301040600240633B00204C3B002004
:1045300030B587B001210820FEF7FAFF01218C0475
:104540002046FFF703F801212046FFF70DF8002170
:104550002046FFF709F8294D072208212846FDF7D4
:1045600067FD072209212846FDF762FD4FF44071DF
:10457000059102218DF8181000248DF81A408DF84D
:104580001B4003218DF8191005A92846FDF712FDDF
:104590001B4D284600F07AFA4FF4E1310191ADF855
:1045A0000840ADF80A40ADF80C400C21ADF80E10F3
:1045B000ADF8104001A9284600F02AFB102128463A
:1045C00000F042FA012240F22441284600F005FBA7
:1045D0000121284600F044FA27208DF8000005202C
:1045E0008DF801008DF8024001208DF80300684627
:1045F000FEF728FF00F006F807B030BD000C0240BF
:104600000048004030B591B001214805FEF790FF09
:10461000012240212A4800F02FFA2A4D2846FDF7B2
:1046200011F94FF0006002902548001D03902648C4
:1046300004900024059427200690079428150890DC
:1046400009940A9480100B904FF440300C900D9414
:1046500003200E900F94109402A92846FDF70AFA41
:104660001949002227312846FDF78EF901212846F5
:10467000FDF77EF9012210212846FDF7E1F901221C
:1046800008212846FDF7DCF90C208DF804000520F0
:104690008DF805008DF8064001208DF8070001A86F
:1046A000FEF7D0FE09492846FDF7AAF80021284662
:1046B000FDF7BCF801212846FDF7B8F811B030BD70
:1046C0000048004028600240AB3B0020000400107E
:1046D0007CB500200190204C1021204600F056FAB5
:1046E00088B140F22441204600F057FA58B1272201
:1046F00000211A4802F0C3FD204600F0E7FA10211D
:10470000204600F0A1F940F225552946204600F048
:1047100044FA00281FD0204600F0D8FA2946204647
:1047200000F096F90E2002F0EDFD0D48006800281B
:1047300011D001A9009100230122022107F064F9A0
:104740000198002807D007494FF080500860BFF358
:104750004F8FBFF36F8F7CBD004800409C27002027
:104760003400002004ED00E070B588B00121402045
:10477000FEF7DEFE01212020FEF704FF012188055F
:10478000FEF7D6FE01212020FEF70AFF002120209F
:10479000FEF706FF2E4E082209213046FDF748FCA1
:1047A00008220E213046FDF743FC4FF48441069168
:1047B00002218DF81C1000248DF81E4001258DF873
:1047C0001F5003218DF81D1006A93046FDF7F2FB9E
:1047D000204E304600F05AF91F490291ADF80C40C6
:1047E000ADF80E40ADF810400C20ADF81200ADF859
:1047F000144002A9304600F00BFA1021304600F0B8
:1048000023F901224FF45871304600F0E6F90122F5
:1048100040F22531304600F0E0F9012240F2244117
:10482000304600F0DAF90121304600F019F947204E
:104830008DF8040005208DF805008DF806408DF8F0
:10484000075001A8FEF7FEFD00F008F808B070BDA3
:10485000001802400014014000093D002DE9F04F0E
:104860009FB001218805FEF763FE4B4C01224021D9
:10487000204600F001F901228021204600F0FCF8DA
:10488000464F3846FCF7DEFFBD050F95261D1096F6
:1048900043481190002412941020139014944FF464
:1048A0008069CDF854901694179418944FF4403AB8
:1048B000CDF864A01A944FF0030BCDF86CB01C94A3
:1048C0001D940FA93846FDF7D5F8DFF8D08008F120
:1048D00078084046FCF7B6FF00950196304811383D
:1048E000029040200390112004900594CDF8189078
:1048F000079408940994CDF828A00B94CDF830B013
:104900000D940E9469464046FDF7B4F8012210213B
:104910004046FDF795F845208DF8780004268DF87F
:1049200079608DF87A4001258DF87B501EA8FEF73E
:1049300089FD012210213846FDF782F801228021ED
:104940003846FDF77DF839208DF878008DF87960CC
:104950008DF87A408DF87B501EA8FEF773FD00227B
:104960000F493846FDF710F801213846FDF700F8E9
:1049700000214046FCF75AFF00214046FCF756FF55
:1049800000213846FCF752FF00213846FCF74EFF65
:104990001FB0BDE8F08F0000001401402864024001
:1049A000863C002070B5264C1021204600F0EEF821
:1049B00018B340F224452946204600F0EEF8E0B155
:1049C000204600F083F900222946204600F005F930
:1049D0001C4E00213046FCF729FF10213046FDF720
:1049E00073F801213046FCF721FF2946204600F0EC
:1049F0002FF81021204600F027F840F225352946EF
:104A0000204600F0C3F830B1204600F05FF9294697
:104A1000204600F019F840F226652946204600F0AD
:104A2000BCF800280AD04021204600F00DF82946A5
:104A30002046BDE87040002200F0CFB870BD0000F5
:104A400000140140286402408A05C9430180704770
:104A500040F66A120A0A01219140C9430180704759
:104A6000002904D0818941F40051818170478189F6
:104A700021F4005181817047002A03D0828A0A43C1
:104A800082827047828A8A438282704710B5374992
:104A9000884209D101211020FEF782FD0021BDE8E6
:104AA00010401020FEF77CBD314988420AD1012117
:104AB0004C042046FEF758FD2046BDE8104000217A
:104AC000FEF752BD2B4988420AD101218C042046B1
:104AD000FEF74AFD2046BDE810400021FEF744BD28
:104AE000254988420AD10121CC042046FEF73CFD2D
:104AF0002046BDE810400021FEF736BD1F49884220
:104B00000AD101210C052046FEF72EFD2046BDE806
:104B100010400021FEF728BD1949884209D1012122
:104B20002020FEF73DFD0021BDE810402020FEF7CB
:104B300037BD144988420AD101218C072046FEF76F
:104B400013FD2046BDE810400021FEF70DBD0E49C3
:104B500088420AD1440501212046FEF705FD204682
:104B6000BDE810400021FEF7FFBC10BD0010014061
:104B70000044004000480040004C0040005000400D
:104B80000014014000780040007C004002460020F4
:104B900012880A4200D00120704770B5002440F608
:104BA0006A12C1F3421301F01F05012606FA05F24D
:104BB000012B0CD0022B0DD0838A1340090A8E40A2
:104BC000008830400BB100B10124204670BD8389BC
:104BD0001340F3E7038A1340F0E710B540F66A1379
:104BE000C1F3421301F01F040121A140012B07D0A2
:104BF000022B07D014303AB102680A43026010BD9C
:104C00000C30F8E71030F6E702688A43026010BD06
:104C10007FB504460D46208A20F44051E8880843B9
:104C20002082A08941F20C618843A9882A89114316
:104C30006A8902431143A181A08A20F44071A889A6
:104C40000843A0826846FEF7B9FC1E48844202D0A1
:104C50001D48844201D1039800E00298A18909040B
:104C600008D500EBC00101EB001029684900B0FB3A
:104C7000F1F007E000EBC00101EB001029688900AA
:104C8000B0FBF1F06422B0FBF2F109010B096FF007
:104C900018056B4300EB8300A3891D044FF032031A
:104CA00007D503EBC000B0FBF2F000F007000843AB
:104CB00006E003EB0010B0FBF2F000F00F00084339
:104CC00020817FBD00100140001401408088C0F3A6
:104CD00008007047FEE70FB49DF80100002808D0D7
:104CE000012806D0022804D0032802D0002004B0F6
:104CF00070470120FBE74100080218BF04200A0E9C
:104D000018BF40F001004FF07F4232EA010108BFB6
:104D100040F00200012808BF0520704710B54FF091
:104D20000E402DED028BB0EE408A18EE104A00EBDB
:104D30004400B0F1506F4AD84FF0FC40B0EB440F44
:104D400022D2B0EEC80AF7EE000A30EEC00AF6EE44
:104D5000000A60EE208A18EE900A05F053FC01EE7E
:104D6000100A14F0004F1DBFDFED2D0A9FED2D0A34
:104D7000B1EE411ADFED2C0A08BF9FED2C0AF8EEC8
:104D8000001A21EE218A05E0DFED290A68EE088A83
:104D9000B0EE600A9FED271ADFED271A30EE080A01
:104DA00048EE811A9FED251A08EEA11ADFED241AAC
:104DB00048EE811A9FED231A08EEA11A68EE281A10
:104DC000BDEC028B01EE810A30EE200A10BD4FF0DF
:104DD000E440B0EB440F0CD918EE100AFFF78BFF3C
:104DE000042808BF00F08EF9B0EE480ABDEC028B33
:104DF00010BD4FF07F40B0EB440F07D2B0EE480A31
:104E0000BDEC028BBDE8104000F06DB9012000F050
:104E100091F9BDEC028BBDE8104000F06BB90000C9
:104E20000000C9BF22AAFDB90000C93F22AAFD396E
:104E30000000000024FE1C3DC78AD83C1E67383D98
:104E40001B93993DAFAA2A3E10EE100A10B510EE42
:104E5000901A4FF0684202EB40032DED028BB3F144
:104E6000654F3CBF02EB4102B2F1654F7CD200BFFF
:104E7000C0F3C753C1F3C7529A1A1B2A09DD10F0B9
:104E8000004F14BF9FED6E0A9FED6E0ABDEC028BC2
:104E900010BD12F11A0F1BDA11F0004F09D010F0FB
:104EA000004F0CBF9FED680A9FED680ABDEC028BB6
:104EB00010BD80EE208A18EE100AFFF71CFF0428B0
:104EC00008BF00F01FF9B0EE480ABDEC028B10BD20
:104ED0004200B2EB410F37D910F0004F19BFDFEDA0
:104EE0005C1A9FED5C1ADFED5C1A9FED5C1AB0EE68
:104EF000602A0A46F1EE400A80F00041B0EE420A14
:104F000010460A1A5200B2F1807F34D2484010F0A5
:104F1000004FDFED532A9FED533A1DBFBEEE002A2E
:104F200071EEE21A31EE431AB6EE002A04BF71EEBA
:104F3000A21A31EE031AF0EE402A42EE602A40EE49
:104F4000020A82EEA02A18E011F0004F04BF9FED84
:104F5000461AF0EE411AD4D010F0004F1CBFDFED1E
:104F6000431A9FED431A00E026E004BFDFED411A2B
:104F70009FED411AC5E780EE202A22EE020ADFEDFE
:104F80003F0ADFED3F2ABDEC028B40EE202ADFED29
:104F90003D0A40EE220ADFED3C2A40EE202ADFEDFA
:104FA0003B0A40EE220A22EE000A00EE201A31EE01
:104FB000020A30EE210A10BD4FF07F42B2EB400FE3
:104FC00028BFB2EB410F05D2BDEC028BBDE810400B
:104FD00000F08CB840EA01035B0008BF41F0FF41DC
:104FE0000BD0B2EB400F08BFB2EB410F08D120F05D
:104FF000804000EE100A21F0804100EE901A37E761
:10500000B2EB400F12BF5FEA410240F0FF4001F0F7
:1050100000413FF42DAF4A0092EA40033FF528AF2C
:10502000002AACBF9FED1A1A9FED1A1A20EE010A52
:1050300060EE810A10EE100A10EE901A18E70000D8
:10504000DB0FC9BFDB0FC93FDB0F4940DB0F49C096
:105050000000C9BF22AAFDB90000C93F22AAFD393C
:105060000060ED3EC30ACE3700000000000049C0DA
:1050700022AA7DBA0000494022AA7D3A2DAD65BD25
:105080008FB8D53D0FB511BE61C84C3EA8AAAABEC7
:105090000000804F0000802F2DED020B019820F0C2
:1050A000004001909DED000B02B0704710B52DED52
:1050B000028BB1EEC08A18EE100A20F00040C0F159
:1050C000FF40C00F0AD010EE100A20F00040C0F1DF
:1050D000FF40C00F04BF012000F02CF8B0EE480ADA
:1050E000BDEC028B10BD30EE000A704730EE200A96
:1050F00070470000DFED020A80EEA00A7047000052
:10510000000000009FED020A20EE000A7047000038
:105110000000001002E008C8121F08C1002AFAD1DE
:1051200070477047002001E001C1121F002AFBD127
:10513000704700000149086070470000D404002057
:10514000D0ED000AF4EEC00AF1EE10FA01DD80EDB8
:10515000000AD0ED000AB1EE400AF4EEC00AF1EE0A
:1051600010FA01D280ED000A7047000070B52DEDF5
:10517000028B8AB005460C4616460DB104B11EB925
:105180000AB0BDEC028B70BD94ED000AB5EEC00A0A
:10519000F1EE10FA0DD194ED010AB5EEC00AF1EE70
:1051A00010FA06D194ED020AB5EEC00AF1EE10FA3B
:1051B0007DD09FED600AB0EE408A002007900890F5
:1051C00009900490059006905B4A07CA01AB07C39B
:1051D00095ED010AD5ED030A20EE200AD5ED000A6F
:1051E00095ED021A00EEC10AF0EE000A20EE200A48
:1051F0008DED070A95ED000AD5ED010A20EE200A93
:10520000D5ED020A95ED031A00EE810AF0EE000AD0
:1052100020EE200A8DED080A95ED000A20EE000A26
:10522000D5ED030A95ED031A00EE810AF7EE000AA8
:10523000B0EE001A51EE000ACDED090A01AB22468C
:105240003146284600F07AF8D4ED000A60EEA00A54
:1052500094ED011AD4ED011A41EE210A94ED021ADF
:10526000D4ED021A41EE210AB0EE600AFBF7A6FC6B
:10527000B0EE408A94ED000A20EE080A84ED000AA0
:1052800094ED010A20EE080A84ED010A94ED020A69
:1052900020EE080A84ED020A94ED010ADDED090A08
:1052A00020EE200AD4ED020A9DED081A00E03EE04F
:1052B00000EEC10A8DED040A94ED020ADDED070A45
:1052C00020EE200AD4ED000A9DED091A00EEC10A75
:1052D0008DED050A94ED000ADDED080A20EE200AA6
:1052E000D4ED010A9DED071A00EEC10A8DED060A04
:1052F00096ED000ADDED010A9DED041A00EE810A2B
:1053000086ED000A96ED010ADDED020A9DED051A13
:1053100000EE810A86ED010A96ED020ADDED030A30
:105320009DED061A00EE810A86ED020A00BF00BF5D
:1053300026E7000000000000BCC600082DE9F0418F
:105340002DED048B07460D4614461E469FED580A68
:10535000B0EE409A9FED560AB0EE408A9FED540A97
:10536000F0EE408AD4ED000A60EEA00A94ED011A36
:10537000D4ED011A41EE210A94ED021AD4ED021A7D
:1053800041EE210AB0EE600AFBF718FCF7EE000AC6
:1053900080EE801AB0EE419AD5ED000AB0EE600AB8
:1053A000FBF79FFAF0EE409AD5ED010AB0EE600AE5
:1053B000FBF797FA79EE809AD5ED020AB0EE600A13
:1053C000FBF78FFA39EE800AF0EE408A3948D0EDCB
:1053D000000A79EE600AB0EE600AFBF782FAB0EEDE
:1053E000408A9FED350AB4EEC08AF1EE10FA06DC71
:1053F0009FED320AF4EEC08AF1EE10FA53DD9FED14
:105400002C2AB0EE420A9FED2A2AF0EE421AB7EE9D
:10541000002AF0EE420A9FED262AB0EE421AB5EEBF
:10542000C08AF1EE10FA05DD9FED232AC2EE082AAC
:10543000B0EE620A9FED222AB4EEC20AF1EE10FA33
:1054400003D29FED1B2AB0EE420AF5EEC08AF1EEC0
:1054500010FA05DD9FED192AC2EE282AF0EE621A35
:10546000B7EE002AB4EEC20AF1EE10FA03D220EE33
:10547000802AF0EE420AB7EE002AF4EEC21AF1EEEC
:1054800010FA03D220EEA12AF0EE420A9FED0D2A77
:1054900020EE822AB0EE421A86ED001A86ED011A3D
:1054A00086ED021A00BFBDEC048BBDE8F081000060
:1054B00000000000D0040020CDCCCC3D8FC2F53DD3
:1054C0009A99993ECDCC4C3E10B52DED048B86B00B
:1054D0000446B0EE408AF0EE608AB0EE419A0020B9
:1054E000039004900590009001900290B0EE000AA5
:1054F000C8EE000AF0EE609AB0EE690AFBF7EFF929
:105500008DED030AB0EE000AC8EE800AF0EE609A54
:10551000B0EE690AFBF7E3F98DED040AB0EE000A7C
:10552000C9EE000AF0EE609AB0EE690AFBF7D7F90F
:105530008DED050AB0EE000AC8EE000AF0EE609AA2
:10554000B0EE690AFBF744FB8DED000AB0EE000AED
:10555000C8EE800AF0EE609AB0EE690AFBF738FBFD
:105560008DED010AB0EE000AC9EE000AF0EE609A75
:10557000B0EE690AFBF72CFB8DED020A9DED050AE2
:10558000DDED040A20EE200ADDED030A20EE200AFC
:10559000DDED020A9DED011A60EE810A9DED001A13
:1055A00000EE810A84ED000A9DED020ADDED040A99
:1055B00020EE200ADDED030A20EE200ADDED050ACB
:1055C0009DED011A60EE810A9DED001A00EEC10A00
:1055D00084ED010A9DED050ADDED010A20EE200AA9
:1055E000DDED030A20EE200ADDED020A9DED041A2E
:1055F00060EE810A9DED001A00EE810A84ED020A38
:105600009DED050ADDED040A20EE200ADDED000A1D
:1056100020EE200ADDED020A9DED011A60EE810AFE
:105620009DED031A00EEC10A84ED030A06B0BDEC3D
:10563000048B10BD30B505460C46002D0CD0022C55
:105640000AD90648A11E0288284602F09FF82919A7
:1056500001F8020D000A487030BD00008C010020E6
:1056600030B505460C46002D0AD0022C08D9601E24
:1056700081B2FF22284602F0A1F8291901F8010C95
:1056800030BD000070B52B4900252B4C0878002850
:1056900007D001281DD0022802D16078F0B30D7028
:1056A00070BD102205212548FDF78EFAFCF7A6FDF6
:1056B000A0602570657004212148FCF7CBFC022115
:1056C0002048FCF7C7FCBDE8704020211E48FCF7CD
:1056D000C1BC207818B1FCF791FDA06070BDFCF74B
:1056E0008DFDA168401AC8280ED9FCF787FDA16876
:1056F000401AFA2808D2BDE87040F7EE000A9FED84
:10570000130A0A2003F02EBDFCF778FDA168401AA9
:10571000B0F57A7FE2D9E078022800E005E001D216
:10572000401CE0700120207070BD05F065F86070CD
:1057300070BD0000F203002000040020D83A0020D1
:1057400000080240001402400010024000001B4408
:1057500070B52B4900252B4C0878002807D001286C
:105760001DD0022802D16078F0B30D7070BD1022F8
:1057700005212548FDF728FAFCF740FDA0602570BB
:10578000657004212148FCF765FC02212048FCF7E4
:1057900061FCBDE8704020211E48FCF75BBC20780E
:1057A00018B1FCF72BFDA06070BDFCF727FDA168C8
:1057B000401AC8280ED9FCF721FDA168401AFA2822
:1057C00008D2BDE87040F7EE000A9FED130A0A20E8
:1057D00003F0C8BCFCF712FDA168401A40F2DC518E
:1057E0008842E1D9E07800E006E0022801D2401CBE
:1057F000E0700120207070BD04F0FEFF607070BD8D
:10580000F203002000040020D43A002000080240E7
:1058100000140240001002400080094408B5334CD7
:105820004FF0FF3604F11205314F55E00098C006E5
:1058300009D5B4F90830B4F90620B4F90410B4F964
:10584000020004F07FFD0098000219D5B4F90E2083
:10585000B4F90C10B4F90A0004F050FDB5F90830A1
:10586000B5F90620B5F90410B5F9020004F0B8FD49
:10587000B5F90E20B5F90C10B5F90A0004F08CFD4D
:105880000098800523D5B4F90830B4F90620B4F99E
:105890000410B4F9020004F055FDB4F90E20B4F977
:1058A0000C10B4F90A0004F029FDB5F90830B5F977
:1058B0000620B5F90410B5F9020004F091FDB5F920
:1058C0000E20B5F90C10B5F90A0004F065FD0020B2
:1058D00005F0E2F90749086033466A463946002078
:1058E00006F0DAF90128F7D1A0E700003C0B002010
:1058F000D0138000AC000020AFF3008012490020DC
:10590000487012481249134A90ED050AD1ED000A79
:10591000B1EE400A30EE600A82ED020A91ED010A12
:10592000D0ED060ABEEE001A10EE810A82ED010AE1
:1059300090ED070AD1ED020AB1EE400A30EE600A9E
:1059400082ED030A70470000B0000020903800206C
:10595000103900206C0B002030B5184C9FED180A50
:10596000184DF7EE000ABFEE001A002908D0C4ED6A
:10597000050A85ED000A85ED010A85ED020A11E0B0
:1059800040B184ED051A85ED000A85ED010A85ED2B
:10599000020A07E084ED050A85ED000A85ED010A9B
:1059A00085ED020A13B1C4ED060A30BD12B184EDD3
:1059B000061A30BD84ED060A30BD00009038002084
:1059C000000000001039002030B51649164A174B68
:1059D00091ED000AD2ED000A30EE200ABDEEC00AB9
:1059E00010EE100AD88091ED010AD2ED020A30EED5
:1059F000600ABDEEC00A10EE101A19810C4A948E8E
:105A00000C44241A9485D48E0D182C44D485148FFC
:105A1000641A04441486548F611A081A50860120AF
:105A2000987030BD800D0020B8380020B0000020F4
:105A30006C0B0020FFF762BF05480078002803D0F8
:105A4000044890F8680008B10020704701207047B2
:105A500098000020C00B00200FB49FED300A9DF885
:105A600014002F498206F6EE000A10D4C2060ED4A6
:105A7000C2070CD000F00102524201EE102AB8EE2B
:105A8000C11A21EE001A21EE201A81ED061A8206B3
:105A90000FD4C2060DD482070BD5C0F3400201EE2D
:105AA000102AB8EE411A21EE001A21EE201A81EDDB
:105AB000061A82060ED4C2060CD442070AD5C0F3D9
:105AC0008002524201EE102AB8EEC11A21EE001AED
:105AD00081ED051A82060DD4C2060BD4020709D542
