:020000040800F2
:10000000305502207D020008B13300084D2200085F
:10001000ED250008510F0008514C000800000000B9
:10002000000000000000000000000000C501000802
:10003000F91A0008000000001902000861380008E1
:10004000970200089702000897020008970200082C
:10005000970200089702000897020008970200081C
:10006000970200089702000897020008970200080C
:10007000B5160008970200089702000897020008CA
:100080009702000829170008970200089702000845
:100090005510000897020008970200089702000810
:1000A00097020008970200089702000897020008CC
:1000B00097020008193A0008970200089702000802
:1000C00097020008970200089702000897020008AC
:1000D00097020008A9430008970200084D4600084F
:1000E000970200089702000897020008970200088C
:1000F000970200089702000897020008970200087C
:10010000970200089702000897020008970200086B
:10011000970200089702000897020008970200085B
:10012000970200089D170008970200089702000830
:10013000970200089702000897020008970200083B
:100140009111000897020008970200089702000822
:1001500097020008D51700089702000821490008F7
:10016000970200089702000897020008970200080B
:1001700097020008970200089702000897020008FB
:100180009702000897020008970200080142000841
:1001900097020008970200089702000897020008DB
:1001A000000000000000000097020008DFF810D0F7
:1001B00000F046FB004800473D8D0008AFF300808B
:1001C000305502202A4B19680868B0E8F04F80F3D8
:1001D0000988BFF36F8F4FF0000080F311887047DC
:1001E0000000000006480068006880F3088862B6D6
:1001F00061B6BFF34F8FBFF36F8F00DF00BF00BF4B
:1002000008ED00E0DFF80C00016841F470010160C6
:10021000704700BF88ED00E0EFF30980BFF36F8FF8
:10022000134B1A681EF0100F08BF20ED108A20E94A
:10023000F04F106008B44FF0600080F31188BFF3F6
:100240004F8FBFF36F8F0AF045FE4FF0000080F331
:10025000118808BC19680868B0E8F04F1EF0100F4C
:1002600008BFB0EC108A80F30988BFF36F8F704726
:1002700044040020EFF305807047000006488047E3
:1002800006480047FEE7FEE7FEE7FEE7FEE7FEE77B
:10029000FEE7FEE7FEE7FEE7A1380008AD01000833
:1002A0009FED1A1AF5EE000A40EE010ABDEEE00AD3
:1002B000F5EEC00A10EE100AF1EE10FA38BF401E3B
:1002C00000EE100A1349F7EE001AB8EEC00A30EE3D
:1002D000C00ADFED0F0A20EE200AFCEEC00A10EE85
:1002E000900AC0F3080000EE900A01EB8000F8EEDF
:1002F000600A90ED011A70EE600A90ED000A71EE4E
:10030000E01A21EE800A00EE810A704783F9223E4E
:1003100000000044F0C30008DFED190AB5EEC00A82
:1003200060EE200ABDEEE01A11EE100AF1EE10FAAE
:1003300038BF401E00EE100A1349F7EE001AB8EE5F
:10034000C00A30EEC00ADFED0F0A60EE200ABCEEF4
:10035000E00A10EE100AC0F3080000EE100A01EBEC
:100360008000B8EE400A90ED011A70EEC00A90EDE0
:10037000000A71EEE01A21EE800A00EE810A704751
:1003800083F9223E00000044F0C3000840EA010364
:100390009B0703D009E008C9121F08C0042AFAD23B
:1003A00003E011F8013B00F8013B521EF9D27047FF
:1003B000D2B201E000F8012B491EFBD270470022A7
:1003C000F6E710B513460A4604461946FFF7F0FF54
:1003D000204610BD421C10F8011B0029FBD1801AD9
:1003E00070472DE9FE4F804681EA0300C00F0C469E
:1003F000009021F0004123F00045B8EB0200A94134
:1004000005D24046214690461C460B46024623F044
:100410000040104347D0270DC7F30A00C3F30A5129
:100420000290401A019040286BDAC3F3130040F4A5
:10043000801B0098924620B10023D2EB030A63EBA5
:100440000B0B01985946C0F14002504600F042F9AA
:1004500006460D4650465946019A00F04AF910EBFF
:1004600008006141002487EA115284EAE7731A43C5
:1004700040D0009A62B3019A012A4FEA075215DC74
:10048000001B61EB02014FF0004202EA0752CDE986
:100490000042001C41F5801132462B4600F081F9E4
:1004A00003B0BDE8F08F40462146F9E7001B61EB41
:1004B0000201001C41F5801300185B412018A2F5D1
:1004C000001747EB030140EAD570B6196D4111E002
:1004D0006D084FEA360645EAC0754FEA0752001B21
:1004E00061EB0201001C41F5801149084FEA300020
:1004F0000019514132462B4603B0BDE8F04F00F0E1
:1005000041B90098012240000023D0EB020263EBC6
:10051000E073009821464FEAE074B8EB000061EB0D
:100520000401E9E783F000435BE781F0004158E70D
:100530002DE9FE4F81EA030404F0004421F000415C
:1005400000944FF0000B23F0004350EA01045ED00A
:1005500052EA03045BD0C3F30A54C1F30A552C4496
:10056000A4F2F3340194A0FB0254C1F3130141F44B
:100570008011C3F3130343F4801301FB024400FB17
:10058000034E840A970A44EA815447EA8357A4FB3E
:10059000076802958D0A05FB07854FEA932C04FB3B
:1005A0000C542705029D4FEA065847EA1637B5EB6B
:1005B00008056EEB070C870E920E47EA811742EA98
:1005C0008312A7FB0201B6EB0B0164EB00042B0DB9
:1005D00043EA0C335E1844EB1C50DA465146E7FB05
:1005E0000201C5F313044FEA0B3343EA14534FEAF5
:1005F0000432019C43EA0603A4F10C040294009C1B
:10060000CDE900B400F0CDF803B0BDE8F08F0020D4
:100610000146F9E700F0004230F000400AD0C10D79
:1006200001F56071C0F3160042EA0151C2084007AB
:1006300011437047002001467047000030B5041E8A
:1006400071F1000404DB4FF00044404264EB01010F
:10065000141E73F1000405DB1C464FF000435242A8
:1006600063EB04038B4208BF824230BD30B5041EE9
:1006700071F1000404DB4FF00044404264EB0101DF
:10068000141E73F1000405DB1C464FF00043524278
:1006900063EB0403994208BF904230BD01F0004370
:1006A00030B421F0004150EA010206D00A0DA2F553
:1006B0006072C1F31301002A02DC30BC00207047D5
:1006C000440F44EAC104C100E01830BC00EBC25042
:1006D00000F021B8202A04DB203A00FA02F10020C1
:1006E00070479140C2F1200320FA03F31943904070
:1006F0007047202A06DBCB17203A41FA02F043EA82
:10070000E07306E041FA02F3D040C2F120029140CA
:100710000843194670470029A8BF7047401C49008C
:1007200008BF20F00100704710B4B0FA80FC00FA56
:100730000CF050EA010404BF10BC704749B1CCF181
:10074000200421FA04F411FA0CF118BF012121430D
:100750000843A3EB0C01CB1D4FEA00614FEA1020C8
:1007600042BF002010BC704700EBC350104400296A
:10077000A4BF10BC7047401C490008BF20F0010016
:1007800010BC704710B5141E73F1000408DA401C49
:1007900041F1000192185B411A4301D120F00100A0
:1007A00010BD2DE9F04D92469B4611B1B1FA81F290
:1007B00002E0B0FA80F220329046FFF78BFF044649
:1007C0000F4640EA0A0041EA0B0153465A460843E5
:1007D00013D0114653EA010019D0C8F14002504627
:1007E00000F040F805460E46504659464246FFF78F
:1007F00071FF084305D0012004E020463946BDE8DA
:10080000F08D0020054346EAE0762C4337430A98F2
:100810006305E40AA0EB08000022FD0A44EA4754FD
:100820000A3002D500200146E9E7010510196941A7
:10083000DDE9084500196941BDE8F04DA2E7000077
:10084000064C074D06E0E06840F0010394E807001D
:1008500098471034AC42F6D3FFF7ACFCF4CB000859
:1008600014CC0008202A04DB203A21FA02F00021EF
:10087000704721FA02F3D040C2F1200291400843B0
:100880001946704770B58C1810F8015B15F0070316
:1008900001D110F8013B2A1106D110F8012B03E019
:1008A00010F8016B01F8016B5B1EF9D12B0705D421
:1008B0000023521E0DD401F8013BFAE710F8013B6A
:1008C000CB1A921C03E013F8015B01F8015B521E86
:1008D000F9D5A142D8D3002070BD04F0DDB904F0F1
:1008E00071BAFFF7DDBCF0EE400AF5EEC00AF1EE9A
:1008F00010FA02DDB0EE600A7047B1EE600AFBE765
:10090000002803D09FED020A80ED000A7047000026
:1009100000000000002803D0B3EE060A80ED000AB4
:100920007047000070B52DED0C8B84B006460C4668
:1009300015469FED990AF0EE408A9FED970AB0EEBA
:10094000409A9FED950AF0EE40BA9FED930AF0EEC3
:10095000409A9FED910AB0EE40AA0EB104B11DB9C4
:1009600004B0BDEC0C8B70BD8C48FFF7C9FF8C4800
:10097000FFF7D0FF8A48D0ED000A9FED8A1A60EE9B
:10098000810AB0EE600A00F025F9F0EE408A28EE08
:10099000A80AF0EE408A8248D0ED000AB0EE001AB4
:1009A00060EE810A9FED7F1A60EE810AB0EE600A68
:1009B00000F010F9B0EE409A29EE090AB0EE409A24
:1009C000DFED790AB7EE000A00EEA80ADFED770A3C
:1009D00000EEC90ADFED760A20EE200A754880EDA8
:1009E000000A6E4890ED000ADFED730A80EE201ACF
:1009F000B7EE000A31EE000A20EE000A6D48D0ED95
:100A0000000A80EE801A6D4880ED001A94ED000A0D
:100A1000B5EEC00AF1EE10FA0DD194ED010AB5EE73
:100A2000C00AF1EE10FA06D194ED020AB5EEC00A42
:100A3000F1EE10FA46D09FED580AB0EE408A002041
:100A4000019002900390D4ED000A60EEA00A94EDAC
:100A5000011AD4ED011A41EE210A94ED021AD4EDE7
:100A6000021A41EE210AB0EE600A00F0A9F8B0EED9
:100A7000408A94ED000A20EE080A8DED010A94EDFB
:100A8000010A20EE080A8DED020A94ED020A20EE1A
:100A9000080A8DED030ADDED010AF1EE600AB0EE01
:100AA000600AFFF71AFFF0EE409A9DED031AF0EE90
:100AB000410A9DED021AB0EE410AFFF710FFB0EEB9
:100AC00040AA07E09FED340AF0EE409A9FED320A0B
:100AD000B0EE40AA95ED000AB5EEC00AF1EE10FAAC
:100AE0000DD195ED010AB5EEC00AF1EE10FA06D16E
:100AF00095ED020AB5EEC00AF1EE10FA3CD0B0EE68
:100B0000690A00F067F8B0EE408AB0EE690AFFF7B4
:100B1000E8FEB0EE40DAB0EE4A0A00F05BF8F0EE24
:100B200040AAB0EE4A0AFFF7DCFEB0EE40BA28EE6B
:100B30002A0AD5ED010A20EE200AD5ED000A0DEEB5
:100B4000200A68EE0B0A95ED021A00EE810AB0EE5B
:100B500040CA95ED010A20EE0B0AD5ED020A0AEE15
:100B6000E00AF0EE40CAF0EE6C0AB0EE4C0AFFF775
:100B7000B6FEF0EE40BA03E09FED070AF0EE40BA91
:100B8000B0EE4A1AF0EE690AB0EE6B0A304604F095
:100B900087FC00BFE4E6000000000000C004002065
:100BA000C404002035FA8E3CC1BFAD3B9DF8C5366C
:100BB0002F7C1C41C8040020506CC24ACC04002089
:100BC00010B504F05FFAB7EE001AC1EE000AB0EEFD
:100BD000600A10BDFFF7A0BB2DE9F0412DED028B9F
:100BE0009AB00546B0EE408A0E4617469846002059
:100BF0001790189019901490159016904DB146B119
:100C00003FB1B8F1000F04D0B5EEC08AF1EE10FA92
:100C100005D100201AB0BDEC028BBDE8F08196ED45
:100C2000000A8DED170A96ED010A8DED180A96ED72
:100C3000020A8DED190A97ED000A8DED140A97ED61
:100C4000010A8DED150A97ED020A8DED160A17AA15
:100C500014A9284604F076FA402104A8FFF7AFFB58
:100C600000200090019002900390002417A904A88E
:100C700009F04AFE00BF30E004A800EB041090ED3C
:100C8000000AD5ED000A20EE200A04A800EB0410AB
:100C9000D0ED010A95ED011A00EE810A04A800EBDF
:100CA0000410D0ED020A95ED021A00EE810A04A8A4
:100CB00000EB0410D0ED030A95ED031A00EE810A53
:100CC00020EE080AF0EE000A80EE201A684600EBDB
:100CD000840080ED001A601CC4B2042CCCDB00241C
:100CE00010E005EB840090ED000A684600EB8400FC
:100CF000D0ED000A30EE200A05EB840080ED000AFA
:100D0000601CC4B2042CECDB284609F0DFF801209B
:100D100080E7000010B50421044801F0AFF9BDE8F8
:100D200010400221024801F0A9B900000008024069
:100D3000001402401021014801F0A2B90000024055
:100D40001021014801F09AB9000002400121014838
:100D500001F096B9000402400121014801F08EB96A
:100D6000000402402DE9FC4104460D4616460020D1
:100D700000900190FFF7E4FF922000F0C9F80622EE
:100D80006946122000F0B2F8FFF7D4FFFFF7D8FF52
:100D9000922000F0BDF806225349122000F0A6F878
:100DA000FFF7C8FF9DF801009DF80010000200B297
:100DB000084300EE100A4C4F0C3FB8EEC00AD7EDC6
:100DC000010A20EE200A85ED000A9DF803009DF837
:100DD0000210000200B2084300EE100AF8EEC00A4A
:100DE00097ED010A60EE800AC5ED010A9DF8050045
:100DF0009DF80410000200B2084300EE900AF8EEDD
:100E0000E00A20EE800A85ED020AFFF7A5FF08221E
:100E10006946002000F06AF8FFF798FFFFF79CFF93
:100E2000082207F11A01002000F060F8FFF78EFF9A
:100E30009DF800000F2830D19DF803009DF80210A6
:100E4000000200B2084300EE100AD7ED020AB8EE25
:100E5000C00A20EE200A84ED000A9DF805009DF8E6
:100E60000410000200B2084300EE100AF8EEC00AB7
:100E700097ED020A60EE800AC4ED010A9DF80700B2
:100E80009DF80610000200B2084300EE900AF8EE4A
:100E9000E00A20EE800A84ED020AFFF751FFA2204B
:100EA00000F036F802226946222000F01FF8FFF712
:100EB00041FF9DF800009DF80110C00040EA51106C
:100EC000B0F5806F02DBA0F5006000B200EE100A02
:100ED000B4EE001AF8EEC00AB3EE070A00EE810A7B
:100EE00086ED000ABDE8FC815400002070B50D4677
:100EF000144640F0800000F00BF806E0552000F0AA
:100F000007F805F8010B641EE4B2002CF6D170BDA1
:100F100010B500210C4B0D4A02E0994206D2491C43
:100F20001489A407F9D59081002004E0002010BDA9
:100F3000984206D2401C1189C907F9D09089C0B2E5
:100F400010BD002010BD000080A21900003001403B
:100F5000FEE700002DE9F04F8BB00746DDF850B0FA
:100F6000884691469A460121082002F099FA01210B
:100F70004C06204602F0A2FA0121204602F0ACFA0B
:100F80000021204602F0A8FA0326099602208DF8D7
:100F9000280000248DF82A4001258DF82B508DF86B
:100FA00029602A4E09A9304601F01AF809220021C9
:100FB000304601F053F809220121304601F04EF885
:100FC0008DF81F508DF820408DF81E408DF823407D
:100FD0008DF821408DF822408DF81A70ADF818B0C8
:100FE0008DF81C908DF81DA08DF81B80184E06A959
:100FF000304600F007FAADF810408DF813408DF838
:101000001450ADF80840ADF80A40ADF80C40ADF80A
:101010000E408DF812408DF8155002A800F018F916
:1010200001220221304600F0E3F914208DF804007B
:1010300004208DF805008DF806408DF8075001A8B2
:1010400002F0B8F90BB0BDE8F08F0000000C0240D0
:101050000064004010B50B4C0221204600F062F9FC
:1010600000280ED00221204600F0AEF8064A0021EA
:10107000204600F049FA2046BDE81040024902F03F
:10108000DFBA10BD00640040E40400202DE9F04701
:101090008AB00646DDF848A00F46904699460121E1
:1010A000022002F0FDF901218C06204602F006FA2A
:1010B0000121204602F010FA0021204602F00CFA2D
:1010C0004FF44050089002208DF8240000248DF841
:1010D00026408DF8274003208DF825002A4D08A9C9
:1010E000284600F07DFF09220C21284600F0B6FFBB
:1010F00009220D21284600F0B1FF01258DF81B5073
:101100008DF81C408DF81A408DF81F408DF81D4059
:101110008DF81E408DF81660ADF814A08DF818807B
:101120008DF819908DF81770184E05A9304600F00B
:1011300069F9ADF80C408DF80F408DF81050ADF8FE
:101140000440ADF80640ADF80840ADF80A400E2066
:101150008DF80E008DF8115001A800F079F80122E9
:101160000221304600F044F940208DF800000420B0
:101170008DF801008DF802408DF80350684602F0AA
:1011800019F90AB0BDE8F087000402400068004089
:1011900010B50B4C0221204600F0C4F800280ED0F8
:1011A0000221204600F010F8064A0021204600F0F7
:1011B000ABF92046BDE81040024902F041BA10BD2B
:1011C00000680040F804002030B5082310240422F1
:1011D000B1F5007F33D011DC20292AD007DC0129AA
:1011E00022D0042923D0082900D1C46030BD402971
:1011F00021D0B1F5807FF9D1426030BD0025B1F535
:10120000004F20D008DCB1F5806F1AD0B1F5006F27
:10121000F3D18561426030BDB1F5803F0DD0B1F5AD
:10122000003FF8D1446030BD0849816030BDC360E3
:1012300030BD036130BD046130BD436030BD4260EC
:1012400030BD426030BD8561426030BD01010100AA
:10125000F0B5827A01219140304C226842F00102BF
:1012600022602E4D1C352A688A432A602B4A067B51
:101270000C322B4B002E14D116688E431660468814
:10128000C78846EA0746877A03EBC707C7F8406670
:101290000688878846EA0746877A03EBC707C7F8B8
:1012A0004466067B012E14D116680E4316604288F0
:1012B000068842EA0642867A03EBC606C6F840264E
:1012C000C288868842EA0642867A03EBC603C3F8E0
:1012D0004426124AC37A121D3BB113680B431360B4
:1012E0000E4A0389143223B106E013688B4313605E
:1012F000F6E713688B4313600389012B02D113684F
:101300000B431360407B012802D128680843286002
:10131000206820F001002060F0BD00000066004061
:10132000006000400246002053690B425DD0B1F5D9
:10133000807F4AD016DC082937D009DC01292CD05F
:1013400002292ED0042950D1D068082100F0ACB970
:1013500010292ED0202930D0402946D110691021E3
:1013600000F0A2B9B1F5004F3BD00CDCB1F5007F25
:101370002FD0B1F5806F30D0B1F5006F35D19069C5
:10138000702100F091B9B1F5803F1AD0B1F5003F5E
:101390002BD15068102100F087B99068134900F0F4
:1013A00083B9D068032100F07FB9D068102100F024
:1013B0007BB91069032100F077B91069082100F0AA
:1013C00073B95068082100F06FB99069012100F0ED
:1013D0006BB99069022100F067B99069042100F0AF
:1013E00063B95068042100F05FB970470101010042
:1013F000002A03D042690A434261704742698A4326
:101400004261704710B50022036823F002030360B5
:10141000036843F0010303604FF6FF7300E0521CC2
:101420004468E40701D19A42F9D14268D2073ED01C
:101430008A79012A3DD0026822F080020260CA79CE
:10144000012A3BD0026822F0400202600A7A012A97
:1014500039D0026822F0200202604A7A012A37D08D
:10146000026822F0100202608A7A012A35D00268EE
:1014700022F008020260CA7A012A33D0026822F000
:10148000040202608A78CC78920742EA04620C79FE
:1014900042EA04424C79098842EA0452491E0A434E
:1014A000C261016821F001010160002120E00020FB
:1014B00010BD026842F080020260C0E7026842F09C
:1014C00040020260C2E7026842F020020260C4E704
:1014D000026842F010020260C6E7026842F00802A9
:1014E0000260C8E7026842F004020260CAE7491CD1
:1014F0004268D20701D09942F9D14068C00701D0B3
:10150000002010BD012010BD10B500EB0113D3F871
:10151000B04104F004041472002C2CD0D3F8B04174
:10152000E408546003F5D8731C6804F00204547294
:101530005C6804F00F0494725C68240AD4749C689C
:10154000D4729C68240A14739C68240C54739C689D
:10155000240E9473DC68D473DC68240A1474DC6889
:10156000240C5474DB681B0E937449B1016941F07B
:101570002001016110BDD3F8B041640D1460D1E7C2
:10158000C16841F02001C16010BD30B502460020A5
:1015900093685B010AD49068000101D5012005E041
:1015A0009068C00001D5022000E0042004283BD050
:1015B00002EB0012D2F8803103F00103C2F880314F
:1015C0000B7A93B3D2F880414D681C434B7A43EABF
:1015D000C5031C43C2F880418B7A03F00F038B7262
:1015E00002F5C072536823F00F03536053688C7A7E
:1015F00023435360CB7A8C7B0D7B43EA04634C7BA3
:10160000240444EA052423439360CB7B8C7C43EA87
:1016100004634C7C097C240444EA01210B43D3601D
:10162000116841F00101116030BDFFE7D2F880314F
:101630004C7A23430C8843EA4453C2F88031CBE709
:101640004978002910D001291BD002290BD190ED37
:10165000030ADFED120AB8EEC00A80EE201ABDEED2
:10166000C10A80ED040A704790ED030ADFED0C0A11
:10167000B8EEC00A80EE201ABDEEC10A80ED040A61
:10168000704790ED030ADFED070AB8EEC00A80EE5E
:10169000201ABDEEC10A80ED040A7047CDCC4C443F
:1016A000610BB641832DD843024600200A4200D088
:1016B0000120704770B5164D164C2946204600F0A3
:1016C00091F960B11449204600F0A6F938B1022121
:1016D000124805F0FEFD2946204600F0A7F8104DFF
:1016E0002046294600F07EF900280FD00D492046FB
:1016F00000F092F9002809D00121084805F0E9FD21
:1017000029462046BDE8704000F090B870BD00004A
:101710000008001028600240008800107C2600208D
:10172000000400100044001070B5164D164C2946F8
:10173000204600F057F960B11449204600F06CF9DA
:1017400038B10221124805F0C4FD2946204600F0B8
:101750006DF8104D2046294600F044F900280FD0BE
:101760000D49204600F058F9002809D00121084809
:1017700005F0AFFD29462046BDE8704000F056B8A0
:1017800070BD000000002020A060024000802020EA
:1017900094260020000010200040102070B50A4C54
:1017A0000A4D2146284600F01DF900280BD021469D
:1017B000284600F03BF8BDE87040012240F2244189
:1017C000034803F0C8B970BD000800102864024047
:1017D0000014014070B5114D114C2946204600F00F
:1017E00001F9002819D00F49204600F015F900280A
:1017F00013D00021204600F02FF82946204600F0A3
:1018000015F81121204600F075F9BDE8704001225D
:1018100040F22661044803F09EB970BD000020200C
:10182000A06402400080202000140140074A90423A
:1018300001D2074801E005481038064A8B0001EA4A
:10184000020101D5C1607047816070471064024099
:10185000006002407D0F7D0F002904D0016841F037
:10186000010101607047016821F0010101607047CA
:101870002DE9F043016821F00101016000210160C0
:1018800041608160C1600161212141613E493E4A60
:1018900010394FF03D08904203D1C1F80880BDE8EF
:1018A000F083394A4FF474651832904201D18D604B
:1018B000F5E7354A4FF474163032904201D18E600C
:1018C000EDE7314A4FF074674832904201D18F60A2
:1018D000E5E72D4B2D4A6033984201D1CA60DEE71F
:1018E000294C2B4B7834A04201D1CB60D7E7DFF8ED
:1018F00098C0284C0CF1900C604501D1CC60CEE72B
:10190000DFF884904FF03D5C09F1A809484502D109
:10191000C1F80CC0C3E72049DFF87C90083948457E
:1019200002D1C1F80080BAE7DFF86C8008F118082E
:10193000404501D10D60B2E7174D3035A84201D1C5
:101940000E60ACE7144D4835A84201D10F60A6E700
:10195000114D11496035091FA84201D10A609EE767
:101960000D4A7832904201D10B6098E70A4A9032D2
:10197000904201D10C6092E7074AA83290428ED182
:10198000C1F800C08BE70000106002403D0000205D
:10199000400F002000003D2010640240002904D0C8
:1019A000016841F4802101607047016821F48021C1
:1019B00001607047002A04D0026842F400220260ED
:1019C00003E0026822F4002202600161704740686F
:1019D00080B27047014600200968090300D5012044
:1019E0007047000002460020084B9A4201D2084A84
:1019F00001E0064A103A8B0001D5526800E01268F7
:101A0000044B1A400A4200D0012070471064024083
:101A1000006002407D0F7D0F30B500240F4A9042D8
:101A200001D20F4A01E00D4A103A0E4B194205D07F
:101A30001E2303EAD12503682B4002E0406900F031
:101A40008003880001D5506800E01068064A104005
:101A5000084201D003B10124204630BD1064024089
:101A6000006002403C0F3C0F7D0F7D0F0B0609D537
:101A700022B1436943F08003436103E0436923F0EB
:101A800080034361802905D001F01E011AB102686C
:101A90000A430260704702688A4302607047000090
:101AA00030B50368124A1340CC680A682243D1E972
:101AB00005452C432243CC6922430C6A22434C6ADD
:101AC00022438C6A22434C6B22438C6B22431A4381
:101AD0000260426922F00703D1E90B2422431A4332
:101AE00042610A6942604A6882608968C16030BDAB
:101AF0003F801CF0416070477047000030B51B4AC2
:101B000083790168002B2AD013688B431360111D61
:101B10000B680468A3430B60017911440B680468E7
:101B200023430B60114C08342168036899432160FA
:101B3000231D19680568A94319604179102905D04A
:101B400011440A68006802430A6030BD21680268D7
:101B500011432160196800680143196030BD0079A4
:101B6000104402688A43026030BD0000003C01401E
:101B700030B5B0EE401A9FED140A144B06211970CF
:101B8000134C19780A46491E04EB810504EB8202C6
:101B9000D5ED000AC2ED000AC9B219700029F0D1D2
:101BA00084ED001A1970197804EB8102D2ED000A55
:101BB00000EB810292ED001A00EE810A491CC9B2C5
:101BC00019700629EFD330BD000000002804002062
:101BD000943A002030B5B0EE401A9FED140A144B31
:101BE00006215970134C59780A46491E04EB8105A9
:101BF00004EB8202D5ED000AC2ED000AC9B25970A9
:101C00000029F0D184ED001A5970597804EB810253
:101C1000D2ED000A00EB810292ED001A00EE810A7B
:101C2000491CC9B259700629EFD330BD000000002D
:101C300028040020B03A002030B5B0EE401A9FEDE5
:101C4000140A144B06219970134C99780A46491EC0
:101C500004EB810504EB8202D5ED000AC2ED000A17
:101C6000C9B299700029F0D184ED001A9970997861
:101C700004EB8102D2ED000A00EB810292ED001A22
:101C800000EE810A491CC9B299700629EFD330BD14
:101C90000000000028040020CC3A00202DE9F0418B
:101CA00010EE101A434A914202D3B9EE040A06E03C
:101CB00010EE101A404A914201DBB1EE040A11EE17
:101CC000101A3E4A914202D39FED3D1A06E011EEF2
:101CD000101A3C4A914201DB9FED3B1A10EE901A1C
:101CE0003A4A914202D3DFED3A0A06E010EE901A2A
:101CF000384A914201DBDFED380ADFED382A20EE69
:101D0000220ABDEEC00A10EE102A21EE220A9FED33
:101D1000341AC0EE012ABDEEE20A10EE103A9FED31
:101D2000310A20EE800AC0EE010ABDEEE00A10EE94
:101D3000101ADFED2D0A21EEA00ABDEEC00A10EE4A
:101D4000105A22EE200ABDEEC00A10EE106A274C8F
:101D5000FE272770EE27677040F01000A070E27039
:101D6000100A20716371180AA071E171080A2072CB
:101D7000080C6072080EA072E572280A2073667360
:101D8000300AA0730F21204605F04AFAE0730F21B4
:101D9000204605F045FA000A207415490020086025
:101DA000144A0868235C1354401C08601028F8DDAE
:101DB000BDE8F0810000A0C00000A040000034C2D7
:101DC000000034C200003442000034420000BFC2B0
:101DD0000000BFC20000BF420000BF4200008043BD
:101DE000280FC940000000470000A0445C370020D5
:101DF000D4030020753F00202DE9FC5F0121084637
:101E000001F04EFB0121022001F04AFB01210420D8
:101E100001F046FB0121102001F042FB01212020AE
:101E200001F03EFB0121802001F03AFB01210E026E
:101E3000304601F035FB0121402001F031FB4FF429
:101E4000FC72009201258DF804508DF80750002493
:101E50008DF806408DF805405A4F6946384600F027
:101E6000BFF8F821384600F00BF93146384600F04B
:101E700005F9202600968DF804508DF807508DF84E
:101E800006408DF80540DFF840A16946504600F055
:101E9000A7F82021504600F0F3F8009669464B4819
:101EA00000F09EF84FF48069CDF8009069464848EC
:101EB00000F096F84946464800F0E2F860200090AD
:101EC000DFF810B16946584600F08AF8602158469C
:101ED00000F0D6F80227009769463D4800F080F8E8
:101EE00000976946394800F07BF88DF804508DF86A
:101EF00007508DF806408DF8054000976946344834
:101F000000F06EF800966946584600F069F84FF008
:101F10004008CDF800806946584600F061F8009608
:101F20006946504600F05CF800976946274800F083
:101F300057F800956946264800F052F8CDF8008021
:101F40008DF804508DF807408DF806408DF8054057
:101F500069461F4800F044F8042000908DF80440C2
:101F60008DF8074069461C4800F03AF88DF80440A7
:101F70008DF807508DF806408DF80540CDF800909B
:101F80006946134800F02CF868020090134D69462A
:101F9000284600F025F88DF804408DF807708DF87C
:101FA00006408DF8054000966946284600F018F86E
:101FB000CDF800806946284600F012F800F047F995
:101FC000BDE8FC9F001802400000024000080240EB
:101FD00000140240001002400004024000200240B1
:101FE0002DE9F041002201274FF0030C07FA02F51A
:101FF0000B682B40AB422CD1066853000CFA03F45B
:10200000A64306600E79D0F800809E4046EA080696
:1020100006600E79012E01D0022E12D18668A643E9
:1020200086604E79D0F808809E4046EA08068660B1
:102030004668AE43466045688E799640B6B23543F1
:102040004560C568A543C560CC799C40C3681C4306
:10205000C460521C102AC9D3BDE8F08110B54B07EB
:10206000DB0E9A40C90800EB8100016A0F249C40F6
:10207000A1430162016A1143016210BD41837047AF
:1020800001837047002A01D0018370474183704764
:102090002DE9F047C6B00026DFF874915D4FDFF8F8
:1020A00078814FF48C7A06EB860000EB461009EB42
:1020B000C00404F1100152466846FEF767F994E83F
:1020C0000F0002F0C6FD00287CD0E07B401EC0B2AD
:1020D000A17B012902D002293ED11EE008EB801528
:1020E00021462846FFF7ACFA2888A061B5F904001C
:1020F00000EE100AB8EEC00A84ED0C0A95ED040A51
:10210000B8EEC00A84ED090AB5F9060000EE100A1F
:10211000B8EEC00A84ED0E0A1EE0404A214602EBEA
:1021200080152846FFF78CFA2888A061B5F90400CD
:1021300000EE100AB8EEC00A84ED0C0A95ED040A10
:10214000B8EEC00A84ED090AB5F9060000EE100ADF
:10215000B8EEC00A84ED0E0A6078032832D105F08B
:1021600045FC207C022802D003282BD115E03888BA
:10217000022827D197ED060A84ED070A97ED070A92
:10218000B8EEC00A84ED0C0A94ED090A84ED0A0A3F
:1021900097ED080A84ED090A14E03888032811D164
:1021A00097ED060A84ED070A97ED070AB8EEC00A14
:1021B00084ED0C0A94ED090A84ED0A0A97ED080AE9
:1021C00084ED090A761CF6B2112EFFF46CAF0020E4
:1021D0001349144C0B78052B09D0062B07D008EBBC
:1021E000801100228A600A888D8A521BCA6008EB1F
:1021F000801104EB40020D8A95848D889582C988F0
:102200009187401CC0B20328E5D946B0BDE8F087ED
:10221000980D0020FC3600208C0700204C0900207F
:1022200098000020680B00200148006870470000FB
:102230004000002004480168491C01600168491CF5
:1022400000D101607047000040000020FEE73EB56D
:102250000121880301F04EF90221012001F054FA16
:1022600008248DF8084002208DF809008DF80A0036
:1022700001258DF80B5002A801F09CF80420009075
:1022800000208DF804008DF805408DF80650684652
:10229000FFF734FC3EBD00009FEDB50AB54880ED68
:1022A0000E0A80ED000A80ED460ADFEDB30AC0EDAC
:1022B0001C0A80ED2A0ADFEDB10AC0ED540ADFEDF9
:1022C000B00AC0ED620ADFEDAF0AC0ED700A80ED22
:1022D0007E0ADFEDAD0AC0ED8C0ADFEDAC0AC0ED81
:1022E0009A0ADFEDAB0AC0EDA80AF2EE041AC0EDBF
:1022F0000F1ADFEDA80AC0ED010AF3EE043AC0EDB3
:10230000473ADFEDA50AC0ED1D0A80ED2B0A80EDEE
:10231000390ADFEDA20AC0ED550ADFEDA10AC0EDD2
:10232000630ADFEDA00AC0ED710A80ED7F0A80ED3F
:102330008D0A80ED9B0A80EDA90AB3EE062A80ED96
:10234000102ADFED992AC0ED022AF1EE000AC0ED55
:10235000480A80ED1E0A80ED2C0A80ED3A0A9FEDB6
:10236000933A80ED563ADFED920AC0ED640A9FED94
:10237000911A80ED721A80ED800AB9EE041A80ED90
:102380008E1A80ED9C0A80EDAA0A80ED112AC0ED1C
:10239000032AC0ED491A80ED1F0A80ED2D0A80ED59
:1023A0003B0A80ED573AC0ED650ADFED830AC0EDC8
:1023B000730A80ED810A80ED8F1A80ED9D0A80ED11
:1023C000AB0A9FED7E1A80ED121ADFED7D0AC0ED9B
:1023D000040A80ED4A0A80ED200A80ED2E0A80ED85
:1023E0003C0A80ED580A80ED660A80ED740ADFED44
:1023F000750AC0ED820AC0ED900A80ED9E0A80ED5C
:10240000AC0AB2EE002A80ED132A80ED051ADFED4A
:102410006E2AC0ED4B2A80ED210A80ED2F0A80ED57
:102420003D0ADFED6A2AC0ED592ADFED692AC0EDC9
:10243000672A9FED683A80ED753A80ED830AB1EE28
:10244000043A80ED913A80ED9F0A80EDAD0A80ED6F
:10245000140A80ED060A80ED4C0A80ED220A80ED18
:10246000300A80ED3E0A80ED5A0A80ED680A80ED60
:10247000760A80ED840A80ED920A80EDA00A80ED54
:10248000AE0AC0ED151A9FED543A80ED073AC0ED43
:102490004D3A9FED523A80ED233A80ED310A80EDBE
:1024A0003F0A9FED4F3A80ED5B3AC0ED692AFBEEA3
:1024B000092AC0ED772A80ED850A80ED930ADFEDC9
:1024C000492AC0EDA12ADFED482AC0EDAF2A80EDF0
:1024D000161AC0ED081A80ED4E0A80ED240A80ED30
:1024E000320A80ED400A80ED5C0A80ED6A0A80EDD8
:1024F000780AC0ED860AC0ED940A80EDA20A80ED4C
:10250000B00A80ED171AF2EE021AC0ED091A80ED3A
:102510004F0A80ED250A80ED330A80ED410A80EDF7
:102520005D0A80ED6B0A80ED790AC0ED870AC0ED87
:10253000950A80EDA30A80EDB10A80ED181A80EDAE
:102540000A2A80ED500A80ED260A80ED340A80EDDB
:10255000420A80ED5E0A80ED6C0A80ED7A0AC0EDD9
:10256000880AC0ED960A80EDA40A80EDB20A704791
:10257000000000004021002000000743CBF8FAC013
:102580003CBD584000004E43000020C200005C43A8
:10259000000028430000FA4400003443C6C49B40B6
:1025A00098A360413333B5C200002F4478D1EEC008
:1025B000D942134100000CC3000002C3000048438D
:1025C000000048420000B442CDCCCC417637BF3E3B
:1025D000ECC08A40000010C2000096440000BEC259
:1025E0002670114000007442000005C3FEE70FB4DE
:1025F00070B50446109D9DED0F2ADDED0E1A9DED80
:102600000D1ADDED0C0A9DED0B0A294604F1400080
:1026100000F00EFF9DED0A2ADDED091A9DED081A66
:10262000DDED070A9DED060A294604F1900070BC15
:102630005DF814EB00F0FCBE00EB800101EB4011F3
:1026400015484FF4FA6200EBC100E4308188B2FB18
:10265000F1F1B0F902205143104A01F5FA71D1604D
:1026600010F8E429012A09D0022A0BD0032A0DD040
:10267000042A0FD1D0F8E00001F056BCD0F8E000F9
:1026800001F04CBCD0F8E00001F04ABCD0F8E0000A
:1026900001F048BC70470000980D0020FC000020AD
:1026A00000B501220A21002004F0FAFB6FF022029B
:1026B0000B21012004F0F4FB9FED272A01239FED5D
:1026C000270AF0EE420A07220321022004F0B2FB9F
:1026D0000123F0EE420AB0EE420A08220321022052
:1026E00004F0A8FB04210122084604F0D9FB2D22A6
:1026F0000921052004F0D4FB01220D21062004F05D
:10270000CFFB01220E21072004F0CAFB03220C217B
:10271000082004F0C5FB0123F8EE000AB0EE000A21
:102720000F2209210A2004F085FB0123F8EE000A9C
:10273000B8EE000A102209210A2004F07BFB0122D6
:1027400006210B2004F0ACFB012205210C205DF8D2
:1027500004EB04F0A5BB0000333313C03333134044
:102760002DE9F04FCBB000248DF8004001268DF804
:1027700001608DF80E608DF80F60ADF814408DF893
:1027800008408DF80940ADF80A40DFF808834FF49F
:10279000947A404652466946FDF7F8FD5146684630
:1027A000FDF70DFE0A208DF800008DF801608DF810
:1027B0000E6005208DF80F008DF812608DF8114025
:1027C00040F2DC50ADF814008DF808408DF8094057
:1027D0004FF64450ADF80A0008F539605246694694
:1027E000FDF7D4FD51466846FDF7E9FD0B208DF855
:1027F00000008DF8016002258DF80E504FF006099B
:102800008DF80F908DF812608DF8114040F2DC5079
:10281000ADF814008DF808408DF809404FF42F7082
:10282000ADF80A0008F6B84052466946FDF7AEFD1D
:1028300051466846FDF7C3FD09208DF800008DF86C
:1028400001508DF80E5005208DF80F008DF81260A4
:10285000ADF814408DF808408DF809404FF624205B
:10286000ADF80A0008F6682052466946FDF78EFD6D
:1028700051466846FDF7A3FD07278DF800708DF8D7
:1028800001508DF80E5004208DF80F008DF8126065
:10289000ADF814408DF808408DF809404FF6E0403F
:1028A000ADF80A0008F6180052466946FDF76EFDBD
:1028B00051466846FDF783FD08208DF800008DF82D
:1028C00001508DF80E508DF80F708DF81260ADF834
:1028D00014408DF808408DF809404FF4487BADF85E
:1028E0000AB008F5146052466946FDF74FFD51469F
:1028F0006846FDF764FD0C208DF800008DF801504E
:102900008DF80E5003278DF80F708DF81260ADF81A
:1029100014408DF808408DF809404FF62420ADF89A
:102920000A0008F55E6052466946FDF72FFD5146E4
:102930006846FDF744FD0D208DF800008DF801700C
:102940008DF81050ADF814408DF808408DF809400E
:102950007820ADF80A0008F6087052466946FDF77F
:1029600015FD51466846FDF72AFD0E208DF8000042
:102970008DF801708DF81070ADF814408DF8084096
:102980008DF809404FF61840ADF80A0040F20620D5
:1029900008EBC00052466946FDF7F8FC5146684610
:1029A000FDF70DFD8DF8009004208DF801003A4FE1
:1029B00038978DF8E4004FF48779ADF8E89008F582
:1029C000DE6052466946FDF7E1FC51466846FDF778
:1029D000F6FC05208DF8000004208DF801003897E2
:1029E0008DF8E450ADF8E89008F5B96052466946B4
:1029F000FDF7CCFC51466846FDF7E1FC0F208DF851
:102A000000008DF801508DF80E508DF80F608DF894
:102A10001260ADF814408DF808408DF80940ADF80B
:102A20000AB040F22B2008EBC00052466946FDF781
:102A3000ADFC51466846FDF7C2FC10208DF8000041
:102A40008DF801508DF80E508DF80F508DF81260F2
:102A5000ADF814408DF808408DF809404FF6E0407D
:102A6000ADF80A0008F5945052466946FDF78EFC11
:102A700051466846FDF7A3FC012000F0A7F90321A9
:102A8000002000F00BF8FFF707FCFFF709FE4BB042
:102A9000BDE8F08F980D0020000800402DE9F047B8
:102AA000C6B08A460026411CCCB200EB8001DFF89C
:102AB000589001EB401009EBC00720E004EB8400C4
:102AC00000EB441809EBC800394605464FF49472F0
:102AD000FDF75CFC05F110014FF48C726846FDF7C0
:102AE00055FC95E80F0002F0B4F830B1761CF6B250
:102AF00009F83840F87B3044E873641CE4B254456C
:102B0000DCD946B0BDE8F087980D002070B50A4EBC
:102B10000A4D0DE001EB810303EB411305EBC30309
:102B20001C18A41B94ED460A83ED460A491CC9B241
:102B30009142EFD970BD0000883A0020980D002026
:102B400000EB800101EB4011174800EBC100817BD5
:102B5000012902D002290DD106E0C17B134A02EB04
:102B60004101828F0A8005E0C17B114A02EB4101DD
:102B7000828F0A80417803290AD1017C022908D07A
:102B8000032905D10B49828F0A800B49C06A08606E
:102B900070470A49828F0A800949C26A0A60094956
:102BA000406A086070470000980D0020380B002034
:102BB0004A0B002010010020180100200C01002009
:102BC000140100201C0100202DE9F0412DED048BA3
:102BD000C6B001260725544F05EB850000EB4510D4
:102BE00017F8301003297DD907EBC00404F1100158
:102BF0004FF48C726846FDF7C9FB94E80F0002F0B1
:102C000028F800286ED0607A002878D160780128F2
:102C100003D0022801D048B126E0B4F90A1000EE32
:102C2000101AB8EEC00A84ED0D0A1DE0A169A1F2E8
:102C30008F6100290ADDB4F90A10C1F1000100EE2C
:102C4000101AB8EEC00A84ED0D0A0DE008DAB4F9E6
:102C50000A1000EE101AB8EEC00A84ED0D0A03E067
:102C600094ED090A84ED480A032848D0D4F834804A
:102C70004046FDF7CFFC41EC100B02F0F9F99FED57
:102C80002B1B51EC100B53EC112BFDF751FC41ECBD
:102C9000180B206BFDF7BEFC41EC100B02F0E8F9BD
:102CA000B0EE409AF0EE609A4046FDF7B3FC41EC7E
:102CB000100B02F0DDF9B0EE401AF0EE601A53ECA2
:102CC000192B51EC110BFDF72DFC53EC182BFDF7D4
:102CD000CDFC14D2A089401C80B2A081C8280ED996
:102CE000012001E014E00AE0607294ED090A84ED2D
:102CF000480A9FED100A84ED0D0A0020A0812846A5
:102D000000F01AF82846FFF71BFF607A00B900268A
:102D10006D1CEDB2112DFFF45FAF46B03046BDEC37
:102D2000048BBDE8F0810000980D0020333333336D
:102D30003333E33F0000000070B500EB800101EB8E
:102D40004011214800EBC10404F19005A07C04F17E
:102D50004006022802D0012818D023E0D4ED0B0A47
:102D600094ED090A304606F0FBFAD4ED1D0AC4EDD5
:102D70000D0A94ED0C0A284606F0F2FA94ED310A99
:102D8000BDEEC00A10EE100AA0870BE0D4ED0D0ACC
:102D900094ED0C0A284606F0E3FABDEEC00A10EEE8
:102DA000100AA087607803280DD1D4ED0B0A94EDAA
:102DB000090A304606F0D4FA94ED1D0ABDEEC00AA9
:102DC00010EE100AA08770BD980D002070B5044663
:102DD0002DED0C8B94B000208DF824009FEDE90AB6
:102DE0008DED0F0A9FEDE89A8DED109ADFEDE79AD1
:102DF000CDED119A9FEDE60A8DED120A9FEDE40AE2
:102E00008DED130A9FEDDF0A8DED0A0A8DED0B9A09
:102E1000CDED0C9A9FEDDE0A8DED0D0A9FEDDC0ADB
:102E20008DED0E0A0CA920220D4668460894FDF788
:102E3000ADFA09A9D7480EC9FFF7D9FB0A208DF8CA
:102E40002400B3EE0EBA8DED0FBADFEDD3AACDEDAF
:102E500010AA9FEDD28A8DED118A9FEDD1CA8DED1A
:102E600012CADFEDD08ACDED138AF3EE04BACDEDB0
:102E70000ABA9FEDCDAA8DED0BAA8DED0C8A8DEDD2
:102E80000DCACDED0E8A2022294668460894FDF72A
:102E90007DFA09A9C5480EC9FFF7A9FB0B208DF8DB
:102EA00024008DED0FBACDED10AA8DED118A9FEDA6
:102EB000C00A8DED120ACDED138ACDED0ABA8DED63
:102EC0000BAA8DED0C8A9FEDBBAA8DED0DAACDED61
:102ED0000E8A2022294668460894FDF757FA09A968
:102EE000B5480EC9FFF783FB04208DF824008DED53
:102EF0000F8A8DED108A8DED118A8DED128A8DED80
:102F0000138A9FEDA00A8DED0A0A8DED0B9ACDED87
:102F10000C9A9FEDAA0A8DED0D0A8DED0E0A202266
:102F2000294668460894FDF731FA09A9A4480EC954
:102F3000FFF75DFB07208DF824008DED0FBACDED76
:102F400010AA8DED118A9FED9FDA8DED12DACDED8D
:102F5000138ACDED0ABA8DED0B9A8DED0C8A8DEDAD
:102F60000DAADFED99CACDED0ECA2022294668468A
:102F70000894FDF70BFA09A994480EC9FFF737FB2F
:102F800009208DF82400B2EE0F0A8DED0F0ACDED69
:102F9000109A8DED118A8DED12AACDED138AB3EE44
:102FA000000A8DED0A0A8DED0B9A8DED0C8A8DEDE0
:102FB0000DAACDED0E8A2022294668460894FDF719
:102FC000E5F909A982480EC9FFF711FB0C208DF81D
:102FD00024008DED0FBACDED10AA8DED118A9FED75
:102FE0007D0A8DED120ACDED138ACDED0ABA8DED75
:102FF0000B9A8DED0C8A8DED0DCACDED0ECA2022F7
:10300000294668460894FDF7C1F909A972480EC916
:10301000FFF7EDFA0D208DF82400F7EE00DACDED84
:103020000FDA8DED108AB2EE040A8DED110A8DEDE6
:10303000120A9FED6ACA8DED13CA8DED0A9A8DEDC5
:103040000B8ACDED0C9A9FED660A8DED0D0A8DED84
:103050000ECA2022294668460894FDF797F909A967
:1030600060480EC9FFF7C3FA0E208DF82400CDED9D
:103070000F9A8DED108A9FED5C0A8DED110ACDED52
:10308000129A8DED13CACDED0ADA8DED0B8A8DED16
:103090000C8ACDED0DAA8DED0ECA20222946684678
:1030A0000894FDF773F909A950480EC9FFF79FFA74
:1030B00008208DF824008DED0FBACDED10AA8DED0E
:1030C000118A8DED12DACDED138ACDED0ABA8DEDB0
:1030D0000B9ACDED0C9A8DED0DAACDED0ECA2022E6
:1030E000294668460894FDF751F909A940480EC9D8
:1030F000FFF77DFA0F208DF824008DED0FBACDED8E
:1031000010AA8DED118A8DED12AACDED138ACDEDA9
:103110000ABA8DED0B9ACDED0C9A8DED0DAACDED81
:103120000E8A2022294668460894FDF72FF909A93E
:1031300030480EC9FFF75BFA10208DF824008DEDA2
:103140000FBACDED10AA8DED118A8DED12AACDED3D
:10315000138ACDED0ABA8DED0B9ACDED0C9A8DED5B
:103160000DAACDED0E8A2022294668460894FDF767
:103170000DF909A920480EC9FFF739FA14B0BDECC2
:103180000C8B70BD000070420AD7233CCDCCCC3DE7
:103190000060EA46980D0020CDCC4C3E00000000B7
:1031A00000803B450000FA436F12833A2819002043
:1031B00000409C4500007A45501A002000007A44E7
:1031C000381200200000FA440080BB44B0150020F3
:1031D0000018002000808945781B00209A99193F2B
:1031E000CDCC4C3DA01C002000004842C81D002052
:1031F000D8160020F01E002018200020C8B005F0CE
:10320000DBFF574E7060DFF85CB1574FDFF85C9121
:103210004FF48C7A4FF001084FF0FF3347AA4FF478
:103220008001002008F0CCFB0128F5D1307838B9B6
:10323000FFF796FAFDF76EFD00F07CFA86F8008045
:10324000002404EB840000EB441007EBC00505F1FB
:10325000100152466846FDF799F80FCD01F0F9FCD0
:1032600010B92046FFF7E8F9641CE4B2112CE8D34A
:103270004798400268D53E480078002864D07078AE
:10328000A8B302F031FE072505EB850000EB4510E1
:1032900017F83010032953D907EBC00404F11001CB
:1032A00052466846FDF772F894E80F0001F0D1FC31
:1032B000B8B36078032836D00221A174607C78B35B
:1032C000707868B384F8128094ED0B0AD4ED090A83
:1032D00030EE600A10EE100A584514DDB4F91400FF
:1032E00000EE100AB8EEC00A84ED0D0A1BE0FFE7FD
:1032F000FFF76AFC7070012200235106D9F8000024
:1033000008F0AEF920E010EE100A58450ADAB4F9D8
:103310001400404200EE100AB8EEC00A84ED0D0A17
:1033200001E00DE0A1742846FFF706FD2846FFF7EF
:1033300007FC01220023D105D9F8000008F090F91C
:103340006D1CEDB2112D9FD30A4801220023D10537
:10335000006808F085F9002007F032FBB0605BE7F9
:10336000FC0000200000C842980D00203C00002016
:10337000980000201C000020DFED030A20EE200A48
:10338000024880ED740A704700000CC298190020B2
:10339000024602210148FEF775BE00000008024007
:1033A000024601210148FEF76DBE00000008024000
:1033B0007047000030B50F23C27801250178002A3C
:1033C0001FD0154A126802F4E062C2F5E062C2F34F
:1033D0000722C2F10404D3404278A24084781C4002
:1033E0001443220101F1E02181F80024007800F06B
:1033F0001F018D404009800000F1E020C0F800511D
:1034000030BD01F01F0085404809800000F1E02038
:10341000C0F8805130BD00000CED00E002490843C7
:1034200002490860704700000000FA050CED00E05A
:1034300010B504462DED048BB0EE408AF0EE608AA4
:10344000B0EE419A144800290DD06064B0EE491ADC
:10345000F0EE680AB0EE480ABDEC048B2046BDE8E9
:10346000104005F0F3BF60640C48A064B0EE491A48
:10347000F0EE680AB0EE480A204605F0E7FFA16CBE
:10348000B0EE491AF0EE680AB0EE480ABDEC048BC3
:103490002046BDE8104008474D9400086D94000890
:1034A000054A002903D01168014311607047116873
:1034B000814311607047000030380240054A0029FE
:1034C00003D0116801431160704711688143116096
:1034D0007047000040380240054A002903D01168B7
:1034E000014311607047116881431160704700000B
:1034F00020380240054A002903D0116801431160B9
:1035000070471168814311607047000044380240E1
:10351000054A002903D01168014311607047116802
:1035200081431160704700002438024070B5244B7D
:10353000196801F00C01234C00291ED0224E0429E9
:103540001DD008291DD00460196801F0F001090997
:103550001E4A545C0168E14041601C6804F4E05478
:10356000A40A145D21FA04F484601B6803F4604328
:103570005B0BD25CD140C16070BD0460E4E70660C3
:10358000E2E70F4A121F1168C1F38055116801F07C
:103590003F0135B1B6FBF1F11468C4F388146143FF
:1035A00005E0B4FBF1F11468C4F3881461431268B8
:1035B000C2F30142521C5200B1FBF2F10160C3E7B9
:1035C000083802400024F400001BB7003204002039
:1035D000012A07D0022A07D0032A07D0042A07D1DC
:1035E00000F0A2BC00F09ABC00F09ABC00F09ABCBB
:1035F000704700007CB501210420FFF751FF012036
:103600008DF804000720009002248DF805400B4D32
:1036100069462846FEF7E4FC00218DF804103021AD
:1036200000918DF8054069462846FEF7D9FC012037
:10363000FFF7B6FE0020FFF7ABFE7CBD000802409E
:1036400070B502460C462B4D2978002901D105F0B2
:1036500051FD2948824237D120680146A0F500700B
:10366000013805D0012803D0022801D0032815D144
:10367000491EC8B2A870214901EB801081694A1C1B
:103680008261322903D8214604F05EF902E0214626
:1036900003F04CFEA878401C03F076FE2078401E14
:1036A000C0B26870164901EB801081694A1C8261C2
:1036B000322904D82146BDE8704004F045B92146BE
:1036C000BDE8704003F032BE2078401EC0B2E87002
:1036D0000C4901EB801081694A1C8261322904D8AF
:1036E0002146BDE8704004F02FB92146BDE8704086
:1036F00003F01CBE44000020006400400C050020C4
:103700008C0700204C09002010B58A07120F0F23E8
:10371000934021F003040649214401F608010C6896
:103720009C430C600B68904003430B6010BD00008D
:10373000003001400348DC21A0F8D617A821A0F8EA
:10374000AE167047980D00201CB500210191009124
:103750002E4A106840F4803010604FF4A043106887
:1037600000F4003000900198401C0190009810B9BE
:1037700001989842F3D11068800302D5012000908F
:1037800000E00091009801283FD1204840300168B6
:1037900041F0805101601E49086840F440400860D3
:1037A0001A48083003680360036843F40043036069
:1037B000036843F4A0530360041F164B236013688F
:1037C00043F08073136013689B01FCD50A6842F4D0
:1037D00080320A604A68D203FCD50A6842F400329B
:1037E0000A604A689203FCD50B4A40F205711160E9
:1037F000016821F003010160016841F002010160EC
:103800000168C1F381010229FAD11CBD00380240D0
:1038100000700040062D4008003C0240012080F36B
:103820001388BFF34F8F05480168054A01F4E06132
:1038300011430160BFF34F8FFEE700000CED00E085
:103840000400FA054FF0E021042804D0086920F0B4
:10385000040008617047086940F00400086170477F
:1038600010B508F02BF8012803D0BDE8104007F090
:1038700015BC10BD10B504466FF00400FFF7E2FF61
:103880000649E008087000EB4002C2EBC0104FF69A
:10389000FF7202EAC000488010BD00002C04002026
:1038A00010B51248016841F47001016010480168C8
:1038B00041F0010101600E4A0021083211600268E6
:1038C0000C4B1A400260031D0B4A1A60026822F476
:1038D0008022026006480C300160FFF735FF034983
:1038E0004FF000608039086010BD000088ED00E0F6
:1038F00000380240FFFFF6FE103000241CB50548DA
:103900000221CDE900100023802203A1054807F021
:1039100077FE1CBD1400002073746172745F7461C3
:10392000736B0000DDA400082DE9F0418AB0064663
:103930000D4601210846FFF7B3FD01210846FFF7B8
:10394000BDFDDFF8D080012211464046FEF786FB20
:10395000012200214046FEF781FB0122032140465F
:10396000FEF77CFB012202214046FEF777FB0F2089
:10397000089002208DF8240001278DF8277000247C
:103980008DF8264003208DF8250008A94046FEF753
:1039900027FB0696ADF81450ADF81C40ADF8164064
:1039A000BD0705A9284600F0C1FA6021ADF8001056
:1039B000ADF80C40ADF802704FF47A71029169468F
:1039C000284600F09FF96946284600F0D5F9694677
:1039D000284600F01FFA6946284600F063FA0821DD
:1039E000284600F0C3F90821284600F009FA08210A
:1039F000284600F051FA0821284600F085FA0121F6
:103A0000284600F017F90121284600F058F90AB0BD
:103A1000BDE8F0810000024010B5074C01212046AE
:103A200000F059F908B1FEF705FC2046BDE810404A
:103A3000012100F041B90000000400402DE9F041EF
:103A40008AB006460D4601210820FFF729FD012115
:103A50000420FFF733FDDFF8C48002220F21404627
:103A6000FEF7FCFA02220E214046FEF7F7FA022288
:103A70000D214046FEF7F2FA02220C214046FEF7E5
:103A8000EDFA4FF47040089002208DF824000127D1
:103A90008DF8277000248DF8264003208DF825002E
:103AA00008A94046FEF79CFA0696ADF81450ADF80A
:103AB0001C40ADF816401A4D05A9284600F036FA0C
:103AC0006021ADF80010ADF80C40ADF802704FF475
:103AD0007A7102916946284600F0E4F96946284661
:103AE00000F098F96946284600F046F90821284672
:103AF00000F00AFA0821284600F0CEF908212846ED
:103B000000F07EF90121284600F094F801212846B2
:103B100000F0D5F80AB0BDE8F0810000000C0240CA
:103B2000000800402DE9F0438BB081460E4601218C
:103B30000802FFF7B5FC01218020FFF7B1FC01214D
:103B40000820FFF7BBFC384F022200213846FEF761
:103B500085FADFF8D88002220A214046FEF77EFA75
:103B600002220B214046FEF779FA02220C21404640
:103B7000FEF774FA0125099502208DF828008DF8CA
:103B80002B5000248DF82A4003208DF8290009A924
:103B90003846FEF725FA4FF4E050099009A940464F
:103BA000FEF71EFACDF81C90ADF81860ADF8204075
:103BB000ADF81A401E4E06A9304600F0B7F9602154
:103BC000ADF80410ADF81040ADF806504FF47A711E
:103BD000039101A9304600F065F901A9304600F0D3
:103BE00019F901A9304600F0C7F801A9304600F0E4
:103BF00089F80821304600F087F90821304600F0A6
:103C00004BF90821304600F0FBF80821304600F05F
:103C1000ADF80121304600F00DF80121304600F0EA
:103C20004EF80BB0BDE8F08300200240001C0240BB
:103C3000000C0040002904D0018841F0800101807F
:103C40007047018821F08001018070477FB50446EC
:103C50000D4601210220FFF731FC02944FF6FF7060
:103C600000EA4500ADF804000024ADF80C40ADF8C2
:103C70000640104D01A9284600F058F901221146CE
:103C8000284600F034F80121284600F015F81D21DF
:103C90008DF800108DF801408DF8024001218DF85B
:103CA00003106846FFF786FB0121284600F007F85D
:103CB0007FBD000000040040C94301827047002915
:103CC00004D0018841F0010101807047018821F092
:103CD00001010180704702460020138A0B4092893F
:103CE0000A40002B02D0002A00D001207047002A91
:103CF00003D082890A438281704782898A43828104
:103D00007047000030B5028C22F001020284058C5D
:103D10008388028B22F0700222F003020C88144385
:103D200025F002028D8915434A882A430D4DA84289
:103D300002D00D4DA8420FD122F00805CA892A43AE
:103D400022F004058A882A4323F4807323F4007345
:103D50000D8A1D434B8A2B4383800483896841630A
:103D6000028430BD0000014000040140028B22F0BB
:103D700008020A430283704770B5028C22F01002D9
:103D80000284028C8388048B24F4E04424F440767B
:103D90000D884FF6FF7404EA0525354322F0200212
:103DA0008E8904EA061616434A8804EA0212324350
:103DB000114EB04202D0114EB04217D122F0800213
:103DC000CE8904EA0616164326F040068A8804EADD
:103DD0000212324323F4806323F400630E8A04EA60
:103DE00086061E434B8A04EA83033343838005839C
:103DF00089688163028470BD0000014000040140B5
:103E0000028B22F400624FF6FF7303EA0121114393
:103E10000183704770B5028C22F480720284028C98
:103E20008388848B24F0700424F003040D882543D8
:103E300022F400728E894FF6FF7404EA06261643B8
:103E40004A8804EA02223243114EB04202D0114E97
:103E5000B04217D122F40066CA8904EA0222324332
:103E600022F480668A8804EA0222324323F48053D3
:103E700023F400530E8A04EA06161E434B8A04EA12
:103E800003133343838085838968C163028470BDD3
:103E90000000014000040140828B22F008020A4326
:103EA0008283704770B5028C22F480520284058CA4
:103EB0008288838B23F4E04323F440760C884FF60A
:103EC000FF7303EA0424344325F400558E8903EA82
:103ED00006362E434D8803EA05353543084EB04279
:103EE00002D0084EB04205D122F480460A8A03EA85
:103EF000821232438280848389680164058470BDA4
:103F00000000014000040140828B22F400624FF661
:103F1000FF7303EA012111438183704741637047B6
:103F200081637047C16370470164704730B5028890
:103F3000164C174DA0420DD0A8420BD0B0F1804FC7
:103F400008D0144B984205D0134B984202D0134B23
:103F5000984203D122F070034A881A43104B9842CA
:103F600006D0104B984203D022F440730A891A43BA
:103F700002804A68C2620A880285A04201D0A84233
:103F800001D1897A01860121818230BD0000014082
:103F9000000401400004004000080040000C004004
:103FA000001000400014004070B588B0012140208E
:103FB000FFF776FA01218C072046FFF77FFA0121EF
:103FC0002046FFF789FA00212046FFF785FA234EA5
:103FD000082207213046FEF741F8082211463046F4
:103FE000FEF73CF84FF4C071069102218DF81C10C9
:103FF00000248DF81E4001258DF81F5003218DF8F7
:104000001D1006A93046FDF7EBFF154E304600F0B7
:10401000FBFC4FF4E1310291ADF80C40ADF80E40DD
:10402000ADF810400C20ADF81200ADF8144002A914
:10403000304600F0ABFD0121304600F0CFFC5220AD
:104040008DF8040005208DF805008DF806408DF8E8
:10405000075001A8FFF7AEF908B070BD001002408C
:104060000078004030B587B001211020FFF718FA22
:104070000121CC072046FFF721FA01212046FFF756
:104080002BFA00212046FFF727FA284D08220021AD
:104090002846FDF7E3FF082201212846FDF7DEFF51
:1040A0000321059102228DF8182000248DF81A4072
:1040B0008DF81B408DF8191005A92846FDF790FFD3
:1040C0001B4D284600F0A0FC4FF461210191ADF892
:1040D0000840ADF80A40ADF80C400C21ADF80E10C8
:1040E000ADF8104001A9284600F050FD10212846E7
:1040F00000F068FC012240F22441284600F02BFD2C
:104100000121284600F06AFC53208DF800000520AC
:104110008DF801008DF8024001208DF803006846FB
:10412000FFF748F900F006F807B030BD0010024074
:10413000007C004030B591B001214805FFF7B0F98F
:1041400001224021294800F055FC294D2846FDF761
:104150008FFB280502902548001D039025480490F8
:1041600000240594A91506910794880008900994E5
:104170000A940B914FF440300C900D9403200E9054
:104180000F94109402A92846FDF78AFC00221A49D0
:104190002846FDF70FFC01212846FDF7FFFB012211
:1041A00010212846FDF762FC012208212846FDF770
:1041B0005DFC11208DF8040005208DF805008DF8B8
:1041C000064001208DF8070001A8FFF7F3F80B491E
:1041D0002846FDF72BFB00212846FDF73DFB01217A
:1041E0002846FDF739FB11B030BD0000007C0040CF
:1041F000A0600240473D0020473E00200004001020
:1042000010B50E4C1021204600F07EFC002813D083
:1042100040F22441204600F07EFC00280CD0002112
:10422000074803F056F8204600F00EFD2046BDE892
:104230001040102100F0C6BB10BD0000007C004003
:104240009426002070B588B001210220FFF728F9DC
:1042500001211020FFF74EF901211020FFF758F936
:1042600000211020FFF754F9284E0722114630464E
:10427000FDF7F4FE8021069102218DF81C10002428
:104280008DF81E4001258DF81F5003218DF81D105B
:1042900006A93046FDF7A4FE1D4E304600F0B4FBE3
:1042A0001C490291ADF80C40ADF80E40A902ADF8E2
:1042B00010100420ADF81200ADF8144002A93046E9
:1042C00000F064FC0121304600F088FB10213046EC
:1042D00000F078FB1021304600F078FB012240F21C
:1042E0002441304600F037FC25208DF804000520DD
:1042F0008DF805008DF806408DF8075001A8FFF7EE
:1043000059F800F009F808B070BD00000004024040
:1043100000100140A086010010B590B00121880571
:10432000FFF7BEF8012240211C4800F063FB1C4C43
:104330002046FDF79DFA4FF0006001901748001DE0
:1043400002901848039000210491242005900691C2
:10435000201507900891099180100A904FF4403081
:104360000B900C9103200D900E910F9101A9204606
:10437000FDF796FB0B49002224312046FDF71AFB7E
:1043800001212046FDF70AFB00212046FDF764FAD3
:1043900001212046FDF760FA10B010BD0010014069
:1043A00040640240FF3A00202DE9F041384D1021D1
:1043B000284600F0A9FB002867D040F22441284697
:1043C00000F0A9FB002860D0284600F03DFC314FEA
:1043D0003846FDF7FFFA304C304E68B101213846BF
:1043E000FDF73AFA2E48FDF7F2FAC0F1240080B248
:1043F0002080242826D02DE000213846FDF72CFA15
:104400003846FDF7E4FAC0F1240080B22080242869
:1044100006D12449244805F02FFE052002F0B4FF00
:104420003C4624212046FDF765FB206840F400202F
:10443000206031462046FDF7F9F901212046FDF7BD
:104440000BFA18E017491848243105F015FE05202D
:1044500002F09AFF3C4624212046FDF74BFB2068E2
:1044600020F40020206031462046FDF7DFF90121CD
:104470002046FDF7F1F91021284600F0A3FA28465E
:10448000BDE8F041102100F0A1BABDE8F0810000C4
:104490000010014040640240300400200000301051
:1044A00040600240FF3A0020E83A002030B587B073
:1044B00001210820FEF7F4FF01218C042046FEF7BD
:1044C000FDFF01212046FFF707F800212046FFF7F6
:1044D00003F8294D072208212846FDF7BFFD0722D2
:1044E00009212846FDF7BAFD4FF4407105910221DC
:1044F0008DF8181000248DF81A408DF81B40032108
:104500008DF8191005A92846FDF76AFD1B4D2846B0
:1045100000F07AFA4FF4E1310191ADF80840ADF8BE
:104520000A40ADF80C400C21ADF80E10ADF810406B
:1045300001A9284600F02AFB1021284600F042FA83
:10454000012240F22441284600F005FB01212846C3
:1045500000F044FA27208DF8000005208DF80100B6
:104560008DF8024001208DF803006846FEF722FF17
:1045700000F006F807B030BD000C024000480040D3
:1045800030B591B001214805FEF78AFF0122402194
:10459000294800F02FFA294D2846FDF769F94FF018
:1045A000006002902448001D0390254804900024D8
:1045B0000594A915069107948800089009940A9417
:1045C0000B914FF440300C900D9403200E900F94FB
:1045D000109402A92846FDF763FA002219492846DB
:1045E000FDF7E8F901212846FDF7D8F9012210214D
:1045F0002846FDF73BFA012208212846FDF736FA46
:104600000C208DF8040005208DF805008DF806407B
:1046100001208DF8070001A8FEF7CCFE0A492846C4
:10462000FDF704F900212846FDF716F90121284677
:10463000FDF712F911B030BD00480040286002407B
:10464000473B0020473C0020000400107CB50020C0
:104650000190204C1021204600F056FA80B140F223
:104660002441204600F057FA50B100211A4802F0C8
:1046700030FE204600F0E8FA1021204600F0A2F9B2
:1046800040F225552946204600F045FA00281FD063
:10469000204600F0D9FA2946204600F097F90E206E
:1046A00002F072FE0D480068002811D001A90091A7
:1046B00000230122022107F03BF80198002807D0CF
:1046C00007494FF080500860BFF34F8FBFF36F8FE3
:1046D0007CBD0000004800407C2600203400002003
:1046E00004ED00E070B588B001214020FEF7D8FE4F
:1046F00001212020FEF7FEFE01218805FEF7D0FEF5
:1047000001212020FEF704FF00212020FEF700FFFA
:104710002E4E082209213046FDF7A0FC08220E216A
:104720003046FDF79BFC4FF48441069102218DF841
:104730001C1000248DF81E4001258DF81F50032108
:104740008DF81D1006A93046FDF74AFC204E304674
:1047500000F05AF91F490291ADF80C40ADF80E4037
:10476000ADF810400C20ADF81200ADF8144002A9CD
:10477000304600F00BFA1021304600F023F90122F8
:104780004FF45871304600F0E6F9012240F225312D
:10479000304600F0E0F9012240F22441304600F0BA
:1047A000DAF90121304600F019F947208DF80400AC
:1047B00005208DF805008DF806408DF8075001A8FA
:1047C000FEF7F8FD00F008F808B070BD00180240D0
:1047D0000014014000093D002DE9F04F9FB0012178
:1047E0008805FEF75DFE4B4C01224021204600F07B
:1047F00001F901228021204600F0FCF8464F38469E
:10480000FDF736F8BD050F95261D1096434811900B
:10481000002412941020139014944FF48069CDF862
:1048200054901694179418944FF4403ACDF864A01D
:104830001A944FF0030BCDF86CB01C941D940FA983
:104840003846FDF72DF9DFF8D08008F178084046AA
:10485000FDF70EF80095019630481138029040207F
:104860000390112004900594CDF8189007940894B3
:104870000994CDF828A00B94CDF830B00D940E9487
:1048800069464046FDF70CF9012210214046FDF72C
:10489000EDF845208DF8780004268DF879608DF8C4
:1048A0007A4001258DF87B501EA8FEF783FD01227A
:1048B00010213846FDF7DAF8012280213846FDF74D
:1048C000D5F839208DF878008DF879608DF87A4028
:1048D0008DF87B501EA8FEF76DFD00220F4938466B
:1048E000FDF768F801213846FDF758F800214046E9
:1048F000FCF7B2FF00214046FCF7AEFF002138462E
:10490000FCF7AAFF00213846FCF7A6FF1FB0BDE860
:10491000F08F00000014014028640240863F002010
:1049200070B5264C1021204600F0EEF818B340F286
:1049300024452946204600F0EEF8E0B1204600F07C
:1049400083F900222946204600F005F91C4E00217B
:104950003046FCF781FF10213046FDF7CBF80121EE
:104960003046FCF779FF2946204600F02FF8102149
:10497000204600F027F840F225352946204600F071
:10498000C3F830B1204600F05FF92946204600F018
:1049900019F840F226652946204600F0BCF80028A8
:1049A0000AD04021204600F00DF829462046BDE8F7
:1049B0007040002200F0CFB870BD0000001401402C
:1049C000286402408A05C9430180704740F66A1294
:1049D0000A0A01219140C94301807047002904D08F
:1049E000818941F4005181817047818921F400510E
:1049F00081817047002A03D0828A0A4382827047ED
:104A0000828A8A438282704710B53749884209D129
:104A100001211020FEF77CFD0021BDE81040102090
:104A2000FEF776BD314988420AD101214C04204667
:104A3000FEF752FD2046BDE810400021FEF74CBDB8
:104A40002B4988420AD101218C042046FEF744FDFF
:104A50002046BDE810400021FEF73EBD25498842B2
:104A60000AD10121CC042046FEF736FD2046BDE8E0
:104A700010400021FEF730BD1F4988420AD10121B4
:104A80000C052046FEF728FD2046BDE81040002119
:104A9000FEF722BD1949884209D101212020FEF7E5
:104AA00037FD0021BDE810402020FEF731BD14493C
:104AB00088420AD101218C072046FEF70DFD2046D1
:104AC000BDE810400021FEF707BD0E4988420AD11B
:104AD000440501212046FEF7FFFC2046BDE81040BA
:104AE0000021FEF7F9BC10BD001001400044004059
:104AF00000480040004C00400050004000140140BD
:104B000000780040007C00400246002012880A42E3
:104B100000D00120704770B5002440F66A12C1F33E
:104B2000421301F01F05012606FA05F2012B0CD0F5
:104B3000022B0DD0838A1340090A8E400088304032
:104B40000BB100B10124204670BD83891340F3E707
:104B5000038A1340F0E710B540F66A13C1F342131D
:104B600001F01F040121A140012B07D0022B07D027
:104B700014303AB102680A43026010BD0C30F8E705
:104B80001030F6E702688A43026010BD7FB5044624
:104B90000D46208A20F44051E88808432082A089ED
:104BA00041F20C618843A9882A8911436A8902432A
:104BB0001143A181A08A20F44071A8890843A082F2
:104BC0006846FEF7B3FC1E48844202D01D4884426A
:104BD00001D1039800E00298A189090408D500EBEF
:104BE000C00101EB001029684900B0FBF1F007E0BB
:104BF00000EBC00101EB001029688900B0FBF1F067
:104C00006422B0FBF2F109010B096FF018056B4348
:104C100000EB8300A3891D044FF0320307D503EB9B
:104C2000C000B0FBF2F000F00700084306E003EB21
:104C30000010B0FBF2F000F00F00084320817FBDB0
:104C400000100140001401408088C0F30800704744
:104C5000FEE70FB49DF80100002808D0012806D017
:104C6000022804D0032802D0002004B0704701209D
:104C7000FBE74100080218BF04200A0E18BF40F0ED
:104C800001004FF07F4232EA010108BF40F002000C
:104C9000012808BF0520704710B54FF00E402DEDDC
:104CA000028BB0EE408A18EE104A00EB4400B0F1DF
:104CB000506F4AD84FF0FC40B0EB440F22D2B0EE18
:104CC000C80AF7EE000A30EEC00AF6EE000A60EEFF
:104CD000208A18EE900A05F0E1FB01EE100A14F0AC
:104CE000004F1DBFDFED2D0A9FED2D0AB1EE411AD9
:104CF000DFED2C0A08BF9FED2C0AF8EE001A21EE1A
:104D0000218A05E0DFED290A68EE088AB0EE600A24
:104D10009FED271ADFED271A30EE080A48EE811AB8
:104D20009FED251A08EEA11ADFED241A48EE811A2C
:104D30009FED231A08EEA11A68EE281ABDEC028B2B
:104D400001EE810A30EE200A10BD4FF0E440B0EBD6
:104D5000440F0CD918EE100AFFF78BFF042808BF88
:104D600000F0BCF9B0EE480ABDEC028B10BD4FF06C
:104D70007F40B0EB440F07D2B0EE480ABDEC028B87
:104D8000BDE8104000F09BB9012000F0BFF9BDEC78
:104D9000028BBDE8104000F099B900000000C9BFC7
:104DA00022AAFDB90000C93F22AAFD390000000077
:104DB00024FE1C3DC78AD83C1E67383D1B93993D95
:104DC000AFAA2A3E70B54FF068422DED048BF0EE8D
:104DD000408A18EE900AB0EE608A18EE101A02EBC4
:104DE0004003B3F1654F3CBF02EB4102B2F1654FA6
:104DF0007DD200BFC0F3C753C1F3C7529A1A1B2A12
:104E000009DD10F0004F14BF9FED830A9FED830A68
:104E1000BDEC048B70BD12F11A0F36DA11F0004FA1
:104E200009D010F0004F0CBF9FED7D0A9FED7D0A69
:104E3000BDEC048B70BD88EE889A19EE100AFFF75E
:104E400018FF042808BF00F049F918EE900AFFF790
:104E500010FF054618EE100AFFF70BFF044619EE87
:104E6000100AFFF706FF042D18BF052D08D1042CEA
:104E700018BF052C04D1002804BF022000F046F919
:104E8000B0EE490ABDEC048B70BD4200B2EB410F9D
:104E90003AD910F0004F19BFDFED630A9FED630AA6
:104EA000DFED630A9FED630AB0EE481A0A46B1EEE1
:104EB000688A80F00041F0EE418A10460A1A5200DA
:104EC000B2F1807F34D2484010F0004FDFED5A1A23
:104ED0009FED5A2A1DBFBEEE001A70EEE10A30EEB9
:104EE000420AB6EE001A08BF70EEA10A00E040E0E8
:104EF00008BF30EE020AB0EE682A01EE482A08EE3A
:104F0000818AC2EE081A15E011F0004F04BF9FED30
:104F10004C0AF0EE400AD1D010F0004F19BFDFED7F
:104F2000490A9FED490ADFED490A9FED490AC5E7A5
:104F3000C8EE881A21EEA11A9FED462ADFED462A17
:104F400041EE022A9FED452A01EE222ADFED442A96
:104F500041EE022A9FED432ABDEC048B01EE222A8A
:104F600021EE811A01EE020A30EE210A30EE200A0B
:104F700070BD4FF07F42B2EB400F28BFB2EB410F44
:104F800009D2F0EE480AB0EE680ABDEC048BBDE829
:104F9000704000F097B840EA01035B0008BF41F0A1
:104FA000FF410BD0B2EB400F08BFB2EB410F08D16D
:104FB00020F0804008EE900A21F0804108EE101A9F
:104FC00018E7B2EB400F12BF5FEA410340F0FF4029
:104FD00001F000413FF40EAFB2EB410F12BF5FEAA8
:104FE000400200F0004041F0FF413FF403AF4A00AF
:104FF00092EA40033FF5FEAE002AACBF9FED1A0ACD
:105000009FED1A0A68EE808A28EE008A18EE900A50
:1050100018EE101AEEE60000DB0FC9BFDB0FC93F28
:10502000DB0F4940DB0F49C00000C9BF22AAFDB910
:105030000000C93F22AAFD390060ED3EC30ACE3709
:1050400000000000000049C022AA7DBA00004940CB
:1050500022AA7D3A2DAD65BD8FB8D53D0FB511BEE5
:1050600061C84C3EA8AAAABE0000804F0000802F55
:105070002DED020B019820F0004001909DED000BFA
:1050800002B0704710B52DED028BB1EEC08A18EE5C
:10509000100A20F00040C0F1FF40C00F0AD010EE0F
:1050A000100A20F00040C0F1FF40C00F04BF0120F3
:1050B00000F02CF8B0EE480ABDEC028B10BD30EECB
:1050C000000A704730EE200A70470000DFED020A48
:1050D00080EEA00A70470000000000009FED020A69
:1050E00020EE000A704700000000001002E008C82F
:1050F000121F08C1002AFAD170477047002001E052
:1051000001C1121F002AFBD170470000014908604D
:1051100070470000D0040020D0ED000AF4EEC00A71
:10512000F1EE10FA01DD80ED000AD0ED000AB1EEDB
:10513000400AF4EEC00AF1EE10FA01D280ED000A46
:105140007047000070B52DED028B8AB005460C4605
:1051500016460DB104B11EB90AB0BDEC028B70BD8C
:1051600094ED000AB5EEC00AF1EE10FA0DD194EDFF
:10517000010AB5EEC00AF1EE10FA06D194ED020A6A
:10518000B5EEC00AF1EE10FA7DD09FED600AB0EEE8
:10519000408A00200790089009900490059006909E
:1051A0005B4A07CA01AB07C395ED010AD5ED030AB7
:1051B00020EE200AD5ED000A95ED021A00EEC10A94
:1051C000F0EE000A20EE200A8DED070A95ED000AA8
:1051D000D5ED010A20EE200AD5ED020A95ED031A5D
:1051E00000EE810AF0EE000A20EE200A8DED080A9A
:1051F00095ED000A20EE000AD5ED030A95ED031A9D
:1052000000EE810AF7EE000AB0EE001A51EE000A35
:10521000CDED090A01AB22463146284600F07AF866
:10522000D4ED000A60EEA00A94ED011AD4ED011A43
:1052300041EE210A94ED021AD4ED021A41EE210A40
:10524000B0EE600AFBF7BCFCB0EE408A94ED000AB9
:1052500020EE080A84ED000A94ED010A20EE080A07
:1052600084ED010A94ED020A20EE080A84ED020A98
:1052700094ED010ADDED090A20EE200AD4ED020AC0
:105280009DED081A00E03EE000EEC10A8DED040A33
:1052900094ED020ADDED070A20EE200AD4ED000AA3
:1052A0009DED091A00EEC10A8DED050A94ED000A84
:1052B000DDED080A20EE200AD4ED010A9DED071A63
:1052C00000EEC10A8DED060A96ED000ADDED010A39
:1052D0009DED041A00EE810A86ED000A96ED010AA2
:1052E000DDED020A9DED051A00EE810A86ED010A48
:1052F00096ED020ADDED030A9DED061A00EE810A25
:1053000086ED020A00BF00BF26E700000000000093
:10531000E4C300082DE9F0412DED048B07460D464E
:1053200014461E469FED580AB0EE409A9FED560A6D
:10533000B0EE408A9FED540AF0EE408AD4ED000AA8
:1053400060EEA00A94ED011AD4ED011A41EE210A93
:1053500094ED021AD4ED021A41EE210AB0EE600A71
:10536000FBF72EFCF7EE000A80EE801AB0EE419AB1
:10537000D5ED000AB0EE600AFBF7B5FAF0EE409A00
:10538000D5ED010AB0EE600AFBF7ADFA79EE809A2E
:10539000D5ED020AB0EE600AFBF7A5FA39EE800AF5
:1053A000F0EE408A3948D0ED000A79EE600AB0EE9E
:1053B000600AFBF798FAB0EE408A9FED350AB4EE2A
:1053C000C08AF1EE10FA06DC9FED320AF4EEC08AD4
:1053D000F1EE10FA53DD9FED2C2AB0EE420A9FED5C
:1053E0002A2AF0EE421AB7EE002AF0EE420A9FEDAA
:1053F000262AB0EE421AB5EEC08AF1EE10FA05DDAB
:105400009FED232AC2EE082AB0EE620A9FED222AFF
:10541000B4EEC20AF1EE10FA03D29FED1B2AB0EEF1
:10542000420AF5EEC08AF1EE10FA05DD9FED192A69
:10543000C2EE282AF0EE621AB7EE002AB4EEC20AD3
:10544000F1EE10FA03D220EE802AF0EE420AB7EE17
:10545000002AF4EEC21AF1EE10FA03D220EEA12ACD
:10546000F0EE420A9FED0D2A20EE822AB0EE421A9B
:1054700086ED001A86ED011A86ED021A00BFBDEC1A
:10548000048BBDE8F081000000000000CC04002087
:10549000CDCCCC3D8FC2F53D9A99993ECDCC4C3EBA
:1054A00010B52DED048B86B00446B0EE408AF0EEC8
:1054B000608AB0EE419A002003900490059000901D
:1054C00001900290B0EE000AC8EE000AF0EE609A79
:1054D000B0EE690AFBF705FA8DED030AB0EE000A9B
:1054E000C8EE800AF0EE609AB0EE690AFBF7F9F9AF
:1054F0008DED040AB0EE000AC9EE000AF0EE609AE3
:10550000B0EE690AFBF7EDF98DED050AB0EE000A81
:10551000C8EE000AF0EE609AB0EE690AFBF75AFB9B
:105520008DED000AB0EE000AC8EE800AF0EE609A37
:10553000B0EE690AFBF74EFB8DED010AB0EE000AF2
:10554000C9EE000AF0EE609AB0EE690AFBF742FB82
:105550008DED020A9DED050ADDED040A20EE200A1C
:10556000DDED030A20EE200ADDED020A9DED011AB1
:1055700060EE810A9DED001A00EE810A84ED000ABA
:105580009DED020ADDED040A20EE200ADDED030A9E
:1055900020EE200ADDED050A9DED011A60EE810A7C
:1055A0009DED001A00EEC10A84ED010A9DED050A89
:1055B000DDED010A20EE200ADDED030A20EE200ACF
:1055C000DDED020A9DED041A60EE810A9DED001AE0
:1055D00000EE810A84ED020A9DED050ADDED040A64
:1055E00020EE200ADDED000A20EE200ADDED020AA1
:1055F0009DED011A60EE810A9DED031A00EEC10ACD
:1056000084ED030A06B0BDEC048B10BD30B5054631
:105610000C46002D0CD0022C0AD90648A11E028887
:10562000284602F0E3F8291901F8020D000A487033
:1056300030BD00008C01002030B505460C46002D21
:105640000AD0022C08D9601E81B2FF22284602F03F
:10565000E5F8291901F8010C30BD000070B52A49A0
:1056600000252A4C0878002807D0012828D00228D5
:1056700002D1607878B30D7070BD00209FED240AD0
:10568000244901EBC00282ED000A401C0928F8DD24
:1056900010220A212048FDF739FAFCF7C5FDA06069
:1056A0002570657004211D48FCF7EAFC02211C48A6
:1056B000FCF7E6FCBDE8704020211A48FCF7E0BC8E
:1056C0002078012540B11448E43880F89850FCF760
:1056D000ABFDA06070BD13E0FCF7A6FDA168401A09
:1056E000C828F7D0FCF7A0FDA168401AB0F5FA6F02
:1056F000F0D9E078022801D2401CE0702570E9E77B
:1057000004F0C6FF6070E5E7F2030020000400200B
:105710000000000098370020743A00200008024082
:10572000001402400010024070B531490025314C90
:105730000878002807D0012828D0022802D16078F4
:10574000F0B30D7070BD00209FED2B0A2B4901EBCB
:10575000C00282ED000A401C0828F8DD1022072153
:105760002748FDF7D3F9FCF75FFDA0602570657051
:1057700004212448FCF784FC02212348FCF780FC28
:10578000BDE8704020212148FCF77ABC207818B190
:10579000FCF74AFDA06070BDFCF746FDA168401A09
:1057A000C82811D9FCF740FDA168401AFA280BD28D
:1057B000B0EE080AFDF7E0FD9FED150A154800E080
:1057C00012E080ED2A0A70BDFCF72EFDA168401A98
:1057D00040F2DC518842F6D9E078022801D2401C20
:1057E000E0700120207070BD04F052FF607070BD49
:1057F000F203002000040020000000009837002081
:10580000703A0020000802400014024000100240DC
:105810000000C8C29819002008B5334C4FF0FF367D
:1058200004F11205314F55E00098C00609D5B4F9CE
:105830000830B4F90620B4F90410B4F9020004F0F9
:10584000D7FC0098000219D5B4F90E20B4F90C1059
:10585000B4F90A0004F0A8FCB5F90830B5F906203F
:10586000B5F90410B5F9020004F010FDB5F90E20E9
:10587000B5F90C10B5F90A0004F0E4FC00988005B5
:1058800023D5B4F90830B4F90620B4F90410B4F9FA
:10589000020004F0ADFCB4F90E20B4F90C10B4F918
:1058A0000A0004F081FCB5F90830B5F90620B5F915
:1058B0000410B5F9020004F0E9FCB5F90E20B5F9C1
:1058C0000C10B5F90A0004F0BDFC002005F078F8D2
:1058D0000749086033466A463946002006F070F8EA
:1058E0000128F7D1A0E70000380B0020D01380007A
:1058F000AC000020AFF3008011490020487011482F
:105900001149BEEE000AD0ED000A91ED051A0F4ACA
:1059100051EE000AC2ED020AD0ED010A91ED061A1D
:1059200051EE000AC2ED010A91ED070AD0ED020A1C
:10593000B1EE400A30EE600A82ED030A70470000C3
:10594000B0000020E837002070370020680B0020EE
:1059500030B5184C9FED180A184DF7EE000ABFEE4F
:10596000001A002908D0C4ED050A85ED000A85ED6E
:10597000010A85ED020A11E040B184ED051A85EDBA
:10598000000A85ED010A85ED020A07E084ED050AAB
:1059900085ED000A85ED010A85ED020A13B1C4ED1B
:1059A000060A30BD12B184ED061A30BD84ED060A38
:1059B00030BD00007037002000000000E8370020F4
:1059C00030B51649164A174B91ED000AD2ED000A80
:1059D00030EE200ABDEEC00A10EE100AD88091ED1C
:1059E000010AD2ED020A30EE600ABDEEC00A10EEE6
:1059F000101A19810C4A948E0C44241A9485D48E62
:105A00000D182C44D485148F641A04441486548FC2
:105A1000611A081A50860120987030BD7C0D002054
:105A200098370020B0000020680B0020FFF764BF0B
:105A300005480078002803D0044890F8680008B1B1
:105A4000002070470120704798000020BC0B002008
:105A50000FB4DFED320A9DF8140031498206B6EE2C
:105A6000000A10D4C2060ED4C2070CD000F0010206
:105A7000524201EE102AB8EEC11A21EE201A21EE90
:105A8000001A81ED061A82060FD4C2060DD48207D1
:105A90000BD5C0F3400201EE102AB8EE411A21EEF8
:105AA000201A21EE001A81ED061A820610D4C206D1
:105AB0000ED442070CD5C0F38002524201EE102AE8
:105AC000B8EEC11A21EE201A21EE001A81ED051A56
:105AD00082060FD4C2060DD402070BD5C0F3C00056
